{
  "address": "0x23A8E2c5EaD54d1b02D09275E293eBeB820B126e",
  "abi": [
    {
      "inputs": [
        {
          "internalType": "address",
          "name": "_VRFCoordinator",
          "type": "address"
        },
        {
          "internalType": "bytes32",
          "name": "_VRFKey",
          "type": "bytes32"
        },
        {
          "internalType": "address",
          "name": "_linkToken",
          "type": "address"
        },
        {
          "internalType": "uint256",
          "name": "_fee",
          "type": "uint256"
        }
      ],
      "stateMutability": "nonpayable",
      "type": "constructor"
    },
    {
      "anonymous": false,
      "inputs": [
        {
          "indexed": true,
          "internalType": "address",
          "name": "targetAddress",
          "type": "address"
        },
        {
          "indexed": true,
          "internalType": "uint256",
          "name": "tokenId",
          "type": "uint256"
        },
        {
          "indexed": true,
          "internalType": "uint256",
          "name": "index",
          "type": "uint256"
        },
        {
          "indexed": false,
          "internalType": "uint256",
          "name": "value",
          "type": "uint256"
        }
      ],
      "name": "EntropyReceived",
      "type": "event"
    },
    {
      "anonymous": false,
      "inputs": [
        {
          "indexed": true,
          "internalType": "address",
          "name": "targetAddress",
          "type": "address"
        },
        {
          "indexed": true,
          "internalType": "uint256",
          "name": "tokenId",
          "type": "uint256"
        },
        {
          "indexed": true,
          "internalType": "uint256",
          "name": "index",
          "type": "uint256"
        },
        {
          "indexed": false,
          "internalType": "bytes32",
          "name": "requestID",
          "type": "bytes32"
        }
      ],
      "name": "EntropyRequested",
      "type": "event"
    },
    {
      "anonymous": false,
      "inputs": [
        {
          "indexed": true,
          "internalType": "bytes32",
          "name": "role",
          "type": "bytes32"
        },
        {
          "indexed": true,
          "internalType": "bytes32",
          "name": "previousAdminRole",
          "type": "bytes32"
        },
        {
          "indexed": true,
          "internalType": "bytes32",
          "name": "newAdminRole",
          "type": "bytes32"
        }
      ],
      "name": "RoleAdminChanged",
      "type": "event"
    },
    {
      "anonymous": false,
      "inputs": [
        {
          "indexed": true,
          "internalType": "bytes32",
          "name": "role",
          "type": "bytes32"
        },
        {
          "indexed": true,
          "internalType": "address",
          "name": "account",
          "type": "address"
        },
        {
          "indexed": true,
          "internalType": "address",
          "name": "sender",
          "type": "address"
        }
      ],
      "name": "RoleGranted",
      "type": "event"
    },
    {
      "anonymous": false,
      "inputs": [
        {
          "indexed": true,
          "internalType": "bytes32",
          "name": "role",
          "type": "bytes32"
        },
        {
          "indexed": true,
          "internalType": "address",
          "name": "account",
          "type": "address"
        },
        {
          "indexed": true,
          "internalType": "address",
          "name": "sender",
          "type": "address"
        }
      ],
      "name": "RoleRevoked",
      "type": "event"
    },
    {
      "inputs": [],
      "name": "DEFAULT_ADMIN_ROLE",
      "outputs": [
        {
          "internalType": "bytes32",
          "name": "",
          "type": "bytes32"
        }
      ],
      "stateMutability": "view",
      "type": "function"
    },
    {
      "inputs": [],
      "name": "REQUESTER_ROLE",
      "outputs": [
        {
          "internalType": "bytes32",
          "name": "",
          "type": "bytes32"
        }
      ],
      "stateMutability": "view",
      "type": "function"
    },
    {
      "inputs": [],
      "name": "VRFFee",
      "outputs": [
        {
          "internalType": "uint256",
          "name": "",
          "type": "uint256"
        }
      ],
      "stateMutability": "view",
      "type": "function"
    },
    {
      "inputs": [],
      "name": "VRFKey",
      "outputs": [
        {
          "internalType": "bytes32",
          "name": "",
          "type": "bytes32"
        }
      ],
      "stateMutability": "view",
      "type": "function"
    },
    {
      "inputs": [
        {
          "internalType": "bytes32",
          "name": "",
          "type": "bytes32"
        }
      ],
      "name": "entropyRequests",
      "outputs": [
        {
          "internalType": "bool",
          "name": "finished",
          "type": "bool"
        },
        {
          "internalType": "bool",
          "name": "requested",
          "type": "bool"
        },
        {
          "internalType": "address",
          "name": "targetAddress",
          "type": "address"
        },
        {
          "internalType": "uint256",
          "name": "tokenId",
          "type": "uint256"
        },
        {
          "internalType": "uint256",
          "name": "index",
          "type": "uint256"
        },
        {
          "internalType": "uint256",
          "name": "value",
          "type": "uint256"
        }
      ],
      "stateMutability": "view",
      "type": "function"
    },
    {
      "inputs": [
        {
          "internalType": "bytes32",
          "name": "role",
          "type": "bytes32"
        }
      ],
      "name": "getRoleAdmin",
      "outputs": [
        {
          "internalType": "bytes32",
          "name": "",
          "type": "bytes32"
        }
      ],
      "stateMutability": "view",
      "type": "function"
    },
    {
      "inputs": [
        {
          "internalType": "bytes32",
          "name": "role",
          "type": "bytes32"
        },
        {
          "internalType": "address",
          "name": "account",
          "type": "address"
        }
      ],
      "name": "grantRole",
      "outputs": [],
      "stateMutability": "nonpayable",
      "type": "function"
    },
    {
      "inputs": [
        {
          "internalType": "bytes32",
          "name": "role",
          "type": "bytes32"
        },
        {
          "internalType": "address",
          "name": "account",
          "type": "address"
        }
      ],
      "name": "hasRole",
      "outputs": [
        {
          "internalType": "bool",
          "name": "",
          "type": "bool"
        }
      ],
      "stateMutability": "view",
      "type": "function"
    },
    {
      "inputs": [
        {
          "internalType": "bytes32",
          "name": "requestId",
          "type": "bytes32"
        },
        {
          "internalType": "uint256",
          "name": "randomness",
          "type": "uint256"
        }
      ],
      "name": "rawFulfillRandomness",
      "outputs": [],
      "stateMutability": "nonpayable",
      "type": "function"
    },
    {
      "inputs": [
        {
          "internalType": "bytes32",
          "name": "role",
          "type": "bytes32"
        },
        {
          "internalType": "address",
          "name": "account",
          "type": "address"
        }
      ],
      "name": "renounceRole",
      "outputs": [],
      "stateMutability": "nonpayable",
      "type": "function"
    },
    {
      "inputs": [
        {
          "internalType": "address",
          "name": "_address",
          "type": "address"
        },
        {
          "internalType": "uint256",
          "name": "_tokenId",
          "type": "uint256"
        },
        {
          "internalType": "uint256",
          "name": "_index",
          "type": "uint256"
        }
      ],
      "name": "requestEntropy",
      "outputs": [],
      "stateMutability": "nonpayable",
      "type": "function"
    },
    {
      "inputs": [
        {
          "internalType": "bytes32",
          "name": "role",
          "type": "bytes32"
        },
        {
          "internalType": "address",
          "name": "account",
          "type": "address"
        }
      ],
      "name": "revokeRole",
      "outputs": [],
      "stateMutability": "nonpayable",
      "type": "function"
    },
    {
      "inputs": [
        {
          "internalType": "uint256",
          "name": "_fee",
          "type": "uint256"
        }
      ],
      "name": "setVRFFee",
      "outputs": [],
      "stateMutability": "nonpayable",
      "type": "function"
    },
    {
      "inputs": [
        {
          "internalType": "bytes32",
          "name": "_newKey",
          "type": "bytes32"
        }
      ],
      "name": "setVRFKey",
      "outputs": [],
      "stateMutability": "nonpayable",
      "type": "function"
    },
    {
      "inputs": [
        {
          "internalType": "bytes4",
          "name": "interfaceId",
          "type": "bytes4"
        }
      ],
      "name": "supportsInterface",
      "outputs": [
        {
          "internalType": "bool",
          "name": "",
          "type": "bool"
        }
      ],
      "stateMutability": "view",
      "type": "function"
    },
    {
      "inputs": [
        {
          "internalType": "address",
          "name": "_address",
          "type": "address"
        },
        {
          "internalType": "uint256",
          "name": "_amount",
          "type": "uint256"
        }
      ],
      "name": "withdrawERC20",
      "outputs": [],
      "stateMutability": "nonpayable",
      "type": "function"
    },
    {
      "inputs": [
        {
          "internalType": "address",
          "name": "_token",
          "type": "address"
        },
        {
          "internalType": "uint256",
          "name": "_tokenId",
          "type": "uint256"
        }
      ],
      "name": "withdrawNFT",
      "outputs": [],
      "stateMutability": "nonpayable",
      "type": "function"
    }
  ],
  "transactionHash": "0xc3bd402452af5453d1e5f78b3ab94956588277f8efdb9b29557972737a3d9205",
  "args": [
    "0x8C7382F9D8f56b33781fE506E897a4F1e2d17255",
    "0x6e75b569a01ef56d18cab6a8e71e6600d6ce853834d4a5748b720d06f878b3a4",
    "0x326C977E6efc84E512bB9C30f76E30c160eD06FB",
    "100000000000000"
  ],
  "solcInputHash": "455709a2f93d8ebd47c9b11d14d74639",
  "bytecode": "0x60c06040523480156200001157600080fd5b50604051620014a4380380620014a483398101604081905262000034916200012a565b6001600160a01b0384811660a05282166080526200005460003362000075565b600283905560038190556200006b60003362000075565b5050505062000173565b62000081828262000085565b5050565b60008281526001602090815260408083206001600160a01b038516845290915290205460ff16620000815760008281526001602081815260408084206001600160a01b0386168086529252808420805460ff19169093179092559051339285917f2f8788117e7eff1d82e926ec794901d17c78024a50270940304540a733656f0d9190a45050565b80516001600160a01b03811681146200012557600080fd5b919050565b600080600080608085870312156200014157600080fd5b6200014c856200010d565b93506020850151925062000163604086016200010d565b6060959095015193969295505050565b60805160a0516112fd620001a7600039600081816107500152610e920152600081816109da0152610e6301526112fd6000f3fe608060405234801561001057600080fd5b50600436106100eb5760003560e01c80634430db7e116100925780634430db7e146102395780636088e93a1461026057806391d1485414610273578063935cbe151461028657806394985ddd1461028f578063a1db9782146102a2578063a217fddf146102b5578063d547741f146102bd578063f6855a69146102d057600080fd5b806301ffc9a7146100f0578063248a9ca3146101185780632f2ff15d1461014a57806330da44cb1461015f57806336568abe146101725780633afd3a4d146101855780633e4839b514610198578063405abbab14610226575b600080fd5b6101036100fe366004610fe8565b6102d9565b60405190151581526020015b60405180910390f35b61013c610126366004611012565b6000908152600160208190526040909120015490565b60405190815260200161010f565b61015d610158366004611047565b610310565b005b61015d61016d366004611012565b61033c565b61015d610180366004611047565b61034e565b61015d610193366004611012565b6103d1565b6101e96101a6366004611012565b600460205260009081526040902080546001820154600283015460039093015460ff808416946101008504909116936201000090046001600160a01b0316929186565b60408051961515875294151560208701526001600160a01b03909316938501939093526060840152608083019190915260a082015260c00161010f565b61015d610234366004611073565b6103e3565b61013c7f61a3517f153a09154844ed8be639dabc6e78dc22315c2d9a91f7eddf9398c00281565b61015d61026e3660046110a6565b6106a3565b610103610281366004611047565b61071a565b61013c60035481565b61015d61029d3660046110d0565b610745565b61015d6102b03660046110a6565b6107c7565b61013c600081565b61015d6102cb366004611047565b610859565b61013c60025481565b60006001600160e01b03198216637965db0b60e01b148061030a57506301ffc9a760e01b6001600160e01b03198316145b92915050565b6000828152600160208190526040909120015461032d8133610880565b61033783836108e4565b505050565b60006103488133610880565b50600355565b6001600160a01b03811633146103c35760405162461bcd60e51b815260206004820152602f60248201527f416363657373436f6e74726f6c3a2063616e206f6e6c792072656e6f756e636560448201526e103937b632b9903337b91039b2b63360891b60648201526084015b60405180910390fd5b6103cd828261094f565b5050565b60006103dd8133610880565b50600255565b7f61a3517f153a09154844ed8be639dabc6e78dc22315c2d9a91f7eddf9398c00261040e8133610880565b6001600160a01b03841660009081526005602090815260408083208684528252808320858452909152902054610100900460ff161561048b5760405162461bcd60e51b815260206004820152601960248201527814995c5d595cdd08185b1c9958591e481c195c999bdc9b5959603a1b60448201526064016103ba565b6040805160c0810182526000808252600160208301526001600160a01b03871692820192909252606081018590526080810184905260a08101829052906104d06109b6565b9050816004600083815260200190815260200160002060008201518160000160006101000a81548160ff02191690831515021790555060208201518160000160016101000a81548160ff02191690831515021790555060408201518160000160026101000a8154816001600160a01b0302191690836001600160a01b03160217905550606082015181600101556080820151816002015560a082015181600301559050508160056000886001600160a01b03166001600160a01b031681526020019081526020016000206000878152602001908152602001600020600086815260200190815260200160002060008201518160000160006101000a81548160ff02191690831515021790555060208201518160000160016101000a81548160ff02191690831515021790555060408201518160000160026101000a8154816001600160a01b0302191690836001600160a01b03160217905550606082015181600101556080820151816002015560a082015181600301559050508160800151826060015183604001516001600160a01b03167f1ff12121ecb2e096a69b93c88f617e20d489141f6bebb96fe9fae2c8441b32488460405161069391815260200190565b60405180910390a4505050505050565b60006106af8133610880565b604051632142170760e11b8152306004820152336024820152604481018390526001600160a01b038416906342842e0e90606401600060405180830381600087803b1580156106fd57600080fd5b505af1158015610711573d6000803e3d6000fd5b50505050505050565b60009182526001602090815260408084206001600160a01b0393909316845291905290205460ff1690565b336001600160a01b037f000000000000000000000000000000000000000000000000000000000000000016146107bd5760405162461bcd60e51b815260206004820152601f60248201527f4f6e6c7920565246436f6f7264696e61746f722063616e2066756c66696c6c0060448201526064016103ba565b6103cd8282610ac9565b60006107d38133610880565b60405163a9059cbb60e01b8152336004820152602481018390526001600160a01b0384169063a9059cbb90604401602060405180830381600087803b15801561081b57600080fd5b505af115801561082f573d6000803e3d6000fd5b505050506040513d601f19601f8201168201806040525081019061085391906110f2565b50505050565b600082815260016020819052604090912001546108768133610880565b610337838361094f565b61088a828261071a565b6103cd576108a2816001600160a01b03166014610cbc565b6108ad836020610cbc565b6040516020016108be929190611140565b60408051601f198184030181529082905262461bcd60e51b82526103ba916004016111db565b6108ee828261071a565b6103cd5760008281526001602081815260408084206001600160a01b0386168086529252808420805460ff19169093179092559051339285917f2f8788117e7eff1d82e926ec794901d17c78024a50270940304540a733656f0d9190a45050565b610959828261071a565b156103cd5760008281526001602090815260408083206001600160a01b0385168085529252808320805460ff1916905551339285917ff6391f5c32d9c69d2a47ea670b442974b53935d1edc7fd64eb21e047a839171b9190a45050565b6003546040516370a0823160e01b8152306004820152600091906001600160a01b037f000000000000000000000000000000000000000000000000000000000000000016906370a082319060240160206040518083038186803b158015610a1c57600080fd5b505afa158015610a30573d6000803e3d6000fd5b505050506040513d601f19601f82011682018060405250810190610a5491906111ee565b1015610ab65760405162461bcd60e51b815260206004820152602b60248201527f4e6f7420656e6f756768204c494e4b202d2066696c6c20636f6e74726163742060448201526a1dda5d1a0819985d58d95d60aa1b60648201526084016103ba565b610ac4600254600354610e5f565b905090565b600082815260046020908152604091829020825160c081018452815460ff808216158015845261010083049091161515948301949094526201000090046001600160a01b03169381019390935260018101546060840152600281015460808401526003015460a0830152610b7f5760405162461bcd60e51b815260206004820152601a60248201527f526571756573746564206578697374656e7420656e74726f707900000000000060448201526064016103ba565b60a081018290526001815260408082015160608301516080840151925163392bb0f360e01b815260048101919091526024810192909252604482018490526001600160a01b03169063392bb0f390606401600060405180830381600087803b158015610bea57600080fd5b505af1158015610bfe573d6000803e3d6000fd5b5050506000848152600460209081526040918290208451815486840151878601516001600160a01b031662010000810262010000600160b01b03199215156101000261ff00199515159590951661ffff1990941693909317939093171617825560608601516001830181905560808701516002840181905560a088015160039094018490559451928352939450917fd41300dc5bc382be1ee43521e54d2b08f89ec0abe29d8ce9b68d8bef0c1b4f0d910160405180910390a4505050565b60606000610ccb83600261121d565b610cd690600261123c565b67ffffffffffffffff811115610cee57610cee611254565b6040519080825280601f01601f191660200182016040528015610d18576020820181803683370190505b509050600360fc1b81600081518110610d3357610d3361126a565b60200101906001600160f81b031916908160001a905350600f60fb1b81600181518110610d6257610d6261126a565b60200101906001600160f81b031916908160001a9053506000610d8684600261121d565b610d9190600161123c565b90505b6001811115610e09576f181899199a1a9b1b9c1cb0b131b232b360811b85600f1660108110610dc557610dc561126a565b1a60f81b828281518110610ddb57610ddb61126a565b60200101906001600160f81b031916908160001a90535060049490941c93610e0281611280565b9050610d94565b508315610e585760405162461bcd60e51b815260206004820181905260248201527f537472696e67733a20686578206c656e67746820696e73756666696369656e7460448201526064016103ba565b9392505050565b60007f00000000000000000000000000000000000000000000000000000000000000006001600160a01b0316634000aea07f000000000000000000000000000000000000000000000000000000000000000084866000604051602001610ecf929190918252602082015260400190565b6040516020818303038152906040526040518463ffffffff1660e01b8152600401610efc93929190611297565b602060405180830381600087803b158015610f1657600080fd5b505af1158015610f2a573d6000803e3d6000fd5b505050506040513d601f19601f82011682018060405250810190610f4e91906110f2565b5060008381526020818152604080832054815180840188905280830185905230606082015260808082018390528351808303909101815260a090910190925281519183019190912086845292909152610fa890600161123c565b6000858152602081815260409182902092909255805180830187905280820184905281518082038301815260609091019091528051910120949350505050565b600060208284031215610ffa57600080fd5b81356001600160e01b031981168114610e5857600080fd5b60006020828403121561102457600080fd5b5035919050565b80356001600160a01b038116811461104257600080fd5b919050565b6000806040838503121561105a57600080fd5b8235915061106a6020840161102b565b90509250929050565b60008060006060848603121561108857600080fd5b6110918461102b565b95602085013595506040909401359392505050565b600080604083850312156110b957600080fd5b6110c28361102b565b946020939093013593505050565b600080604083850312156110e357600080fd5b50508035926020909101359150565b60006020828403121561110457600080fd5b81518015158114610e5857600080fd5b60005b8381101561112f578181015183820152602001611117565b838111156108535750506000910152565b76020b1b1b2b9b9a1b7b73a3937b61d1030b1b1b7bab73a1604d1b815260008351611172816017850160208801611114565b7001034b99036b4b9b9b4b733903937b6329607d1b60179184019182015283516111a3816028840160208801611114565b01602801949350505050565b600081518084526111c7816020860160208601611114565b601f01601f19169290920160200192915050565b602081526000610e5860208301846111af565b60006020828403121561120057600080fd5b5051919050565b634e487b7160e01b600052601160045260246000fd5b600081600019048311821515161561123757611237611207565b500290565b6000821982111561124f5761124f611207565b500190565b634e487b7160e01b600052604160045260246000fd5b634e487b7160e01b600052603260045260246000fd5b60008161128f5761128f611207565b506000190190565b60018060a01b03841681528260208201526060604082015260006112be60608301846111af565b9594505050505056fea264697066735822122075e9d9d7ee4138dde84e5826a9f4b283dbff740eeec2cbf167d77345de9d035264736f6c63430008090033",
  "devdoc": {
    "kind": "dev",
    "methods": {
      "getRoleAdmin(bytes32)": {
        "details": "Returns the admin role that controls `role`. See {grantRole} and {revokeRole}. To change a role's admin, use {_setRoleAdmin}."
      },
      "grantRole(bytes32,address)": {
        "details": "Grants `role` to `account`. If `account` had not been already granted `role`, emits a {RoleGranted} event. Requirements: - the caller must have ``role``'s admin role."
      },
      "hasRole(bytes32,address)": {
        "details": "Returns `true` if `account` has been granted `role`."
      },
      "renounceRole(bytes32,address)": {
        "details": "Revokes `role` from the calling account. Roles are often managed via {grantRole} and {revokeRole}: this function's purpose is to provide a mechanism for accounts to lose their privileges if they are compromised (such as when a trusted device is misplaced). If the calling account had been revoked `role`, emits a {RoleRevoked} event. Requirements: - the caller must be `account`."
      },
      "revokeRole(bytes32,address)": {
        "details": "Revokes `role` from `account`. If `account` had been granted `role`, emits a {RoleRevoked} event. Requirements: - the caller must have ``role``'s admin role."
      },
      "supportsInterface(bytes4)": {
        "details": "See {IERC165-supportsInterface}."
      },
      "withdrawERC20(address,uint256)": {
        "details": "Withdraw function to avoid locking tokens in the contract"
      },
      "withdrawNFT(address,uint256)": {
        "details": "Emergency method to withdraw NFT in case someone sends.."
      }
    },
    "stateVariables": {
      "tokenEntropyRequest": {
        "details": "Maps each request to the tuple 721 contract + token + index Used to only allow 1 request per token as indicated in https://docs.chain.link/docs/vrf-security-considerations/"
      }
    },
    "version": 1
  },
  "userdoc": {
    "kind": "user",
    "methods": {},
    "notice": "Constructor inherits VRFConsumerBase  Network: Mumbai Chainlink VRF Coordinator address: 0x8C7382F9D8f56b33781fE506E897a4F1e2d17255 LINK token address:                0x326C977E6efc84E512bB9C30f76E30c160eD06FB Key Hash: 0x6e75b569a01ef56d18cab6a8e71e6600d6ce853834d4a5748b720d06f878b3a4  Network: BSC Testnet Chainlink VRF Coordinator address: 0xa555fC018435bef5A13C6c6870a9d4C11DEC329C LINK token address:                0x84b9B910527Ad5C03A9Ca831909E21e236EA7b06 Key Hash: 0xcaf3c3727e033261d383b315559476f48034c13b18f8cafed4d871abe5049186",
    "version": 1
  },
  "storageLayout": {
    "storage": [
      {
        "astId": 79,
        "contract": "contracts/EntropyManager.sol:EntropyManager",
        "label": "nonces",
        "offset": 0,
        "slot": "0",
        "type": "t_mapping(t_bytes32,t_uint256)"
      },
      {
        "astId": 290,
        "contract": "contracts/EntropyManager.sol:EntropyManager",
        "label": "_roles",
        "offset": 0,
        "slot": "1",
        "type": "t_mapping(t_bytes32,t_struct(RoleData)285_storage)"
      },
      {
        "astId": 3682,
        "contract": "contracts/EntropyManager.sol:EntropyManager",
        "label": "VRFKey",
        "offset": 0,
        "slot": "2",
        "type": "t_bytes32"
      },
      {
        "astId": 3684,
        "contract": "contracts/EntropyManager.sol:EntropyManager",
        "label": "VRFFee",
        "offset": 0,
        "slot": "3",
        "type": "t_uint256"
      },
      {
        "astId": 3702,
        "contract": "contracts/EntropyManager.sol:EntropyManager",
        "label": "entropyRequests",
        "offset": 0,
        "slot": "4",
        "type": "t_mapping(t_bytes32,t_struct(Request)3697_storage)"
      },
      {
        "astId": 3712,
        "contract": "contracts/EntropyManager.sol:EntropyManager",
        "label": "tokenEntropyRequest",
        "offset": 0,
        "slot": "5",
        "type": "t_mapping(t_address,t_mapping(t_uint256,t_mapping(t_uint256,t_struct(Request)3697_storage)))"
      }
    ],
    "types": {
      "t_address": {
        "encoding": "inplace",
        "label": "address",
        "numberOfBytes": "20"
      },
      "t_bool": {
        "encoding": "inplace",
        "label": "bool",
        "numberOfBytes": "1"
      },
      "t_bytes32": {
        "encoding": "inplace",
        "label": "bytes32",
        "numberOfBytes": "32"
      },
      "t_mapping(t_address,t_bool)": {
        "encoding": "mapping",
        "key": "t_address",
        "label": "mapping(address => bool)",
        "numberOfBytes": "32",
        "value": "t_bool"
      },
      "t_mapping(t_address,t_mapping(t_uint256,t_mapping(t_uint256,t_struct(Request)3697_storage)))": {
        "encoding": "mapping",
        "key": "t_address",
        "label": "mapping(address => mapping(uint256 => mapping(uint256 => struct EntropyManager.Request)))",
        "numberOfBytes": "32",
        "value": "t_mapping(t_uint256,t_mapping(t_uint256,t_struct(Request)3697_storage))"
      },
      "t_mapping(t_bytes32,t_struct(Request)3697_storage)": {
        "encoding": "mapping",
        "key": "t_bytes32",
        "label": "mapping(bytes32 => struct EntropyManager.Request)",
        "numberOfBytes": "32",
        "value": "t_struct(Request)3697_storage"
      },
      "t_mapping(t_bytes32,t_struct(RoleData)285_storage)": {
        "encoding": "mapping",
        "key": "t_bytes32",
        "label": "mapping(bytes32 => struct AccessControl.RoleData)",
        "numberOfBytes": "32",
        "value": "t_struct(RoleData)285_storage"
      },
      "t_mapping(t_bytes32,t_uint256)": {
        "encoding": "mapping",
        "key": "t_bytes32",
        "label": "mapping(bytes32 => uint256)",
        "numberOfBytes": "32",
        "value": "t_uint256"
      },
      "t_mapping(t_uint256,t_mapping(t_uint256,t_struct(Request)3697_storage))": {
        "encoding": "mapping",
        "key": "t_uint256",
        "label": "mapping(uint256 => mapping(uint256 => struct EntropyManager.Request))",
        "numberOfBytes": "32",
        "value": "t_mapping(t_uint256,t_struct(Request)3697_storage)"
      },
      "t_mapping(t_uint256,t_struct(Request)3697_storage)": {
        "encoding": "mapping",
        "key": "t_uint256",
        "label": "mapping(uint256 => struct EntropyManager.Request)",
        "numberOfBytes": "32",
        "value": "t_struct(Request)3697_storage"
      },
      "t_struct(Request)3697_storage": {
        "encoding": "inplace",
        "label": "struct EntropyManager.Request",
        "members": [
          {
            "astId": 3686,
            "contract": "contracts/EntropyManager.sol:EntropyManager",
            "label": "finished",
            "offset": 0,
            "slot": "0",
            "type": "t_bool"
          },
          {
            "astId": 3688,
            "contract": "contracts/EntropyManager.sol:EntropyManager",
            "label": "requested",
            "offset": 1,
            "slot": "0",
            "type": "t_bool"
          },
          {
            "astId": 3690,
            "contract": "contracts/EntropyManager.sol:EntropyManager",
            "label": "targetAddress",
            "offset": 2,
            "slot": "0",
            "type": "t_address"
          },
          {
            "astId": 3692,
            "contract": "contracts/EntropyManager.sol:EntropyManager",
            "label": "tokenId",
            "offset": 0,
            "slot": "1",
            "type": "t_uint256"
          },
          {
            "astId": 3694,
            "contract": "contracts/EntropyManager.sol:EntropyManager",
            "label": "index",
            "offset": 0,
            "slot": "2",
            "type": "t_uint256"
          },
          {
            "astId": 3696,
            "contract": "contracts/EntropyManager.sol:EntropyManager",
            "label": "value",
            "offset": 0,
            "slot": "3",
            "type": "t_uint256"
          }
        ],
        "numberOfBytes": "128"
      },
      "t_struct(RoleData)285_storage": {
        "encoding": "inplace",
        "label": "struct AccessControl.RoleData",
        "members": [
          {
            "astId": 282,
            "contract": "contracts/EntropyManager.sol:EntropyManager",
            "label": "members",
            "offset": 0,
            "slot": "0",
            "type": "t_mapping(t_address,t_bool)"
          },
          {
            "astId": 284,
            "contract": "contracts/EntropyManager.sol:EntropyManager",
            "label": "adminRole",
            "offset": 0,
            "slot": "1",
            "type": "t_bytes32"
          }
        ],
        "numberOfBytes": "64"
      },
      "t_uint256": {
        "encoding": "inplace",
        "label": "uint256",
        "numberOfBytes": "32"
      }
    }
  }
}