{
  "address": "0xa5299B89c5f1e8A6D525B801f42342dc18335964",
  "abi": [
    {
      "inputs": [],
      "name": "REDEEMER_TICKET",
      "outputs": [
        {
          "internalType": "enum RedeemersTypes",
          "name": "",
          "type": "uint8"
        }
      ],
      "stateMutability": "view",
      "type": "function"
    },
    {
      "inputs": [
        {
          "internalType": "uint8",
          "name": "_redeemerType",
          "type": "uint8"
        },
        {
          "internalType": "uint256",
          "name": "_tokenId",
          "type": "uint256"
        }
      ],
      "name": "getScoutId",
      "outputs": [
        {
          "internalType": "uint256",
          "name": "",
          "type": "uint256"
        }
      ],
      "stateMutability": "pure",
      "type": "function"
    },
    {
      "inputs": [],
      "name": "typeBounds",
      "outputs": [
        {
          "internalType": "uint8",
          "name": "",
          "type": "uint8"
        },
        {
          "internalType": "uint8",
          "name": "",
          "type": "uint8"
        }
      ],
      "stateMutability": "pure",
      "type": "function"
    },
    {
      "inputs": [
        {
          "internalType": "uint8",
          "name": "_redeemerType",
          "type": "uint8"
        }
      ],
      "name": "typeName",
      "outputs": [
        {
          "internalType": "string",
          "name": "",
          "type": "string"
        }
      ],
      "stateMutability": "pure",
      "type": "function"
    }
  ],
  "transactionHash": "0xb698474939e07e89f90291a5ae68dbe8ccbea4c253804f2017c9c2457f0edb64",
  "args": [],
  "solcInputHash": "455709a2f93d8ebd47c9b11d14d74639",
  "bytecode": "0x608060405234801561001057600080fd5b506102f8806100206000396000f3fe608060405234801561001057600080fd5b506004361061004c5760003560e01c8063323b58ea146100515780635f8562171461006f578063805ea39114610090578063bd7a8355146100a4575b600080fd5b610059600081565b60405161006691906101e3565b60405180910390f35b61008261007d366004610221565b6100c4565b604051908152602001610066565b604080516000808252602082015201610066565b6100b76100b236600461024b565b61017f565b604051610066919061026d565b600060ff831661013a5761125c82106101335760405162461bcd60e51b815260206004820152602660248201527f4f6e6c7920343730302050696f6e656572732073686f756c6420626520617661604482015265696c61626c6560d01b60648201526084015b60405180910390fd5b5080610179565b60405162461bcd60e51b8152602060048201526014602482015273696e76616c69642072656465656d65725479706560601b604482015260640161012a565b92915050565b606060ff82166101ac5750506040805180820190915260078152665469636b65747360c81b602082015290565b60405162461bcd60e51b815260206004820152600c60248201526b4e6f74206578697374696e6760a01b604482015260640161012a565b602081016001831061020557634e487b7160e01b600052602160045260246000fd5b91905290565b803560ff8116811461021c57600080fd5b919050565b6000806040838503121561023457600080fd5b61023d8361020b565b946020939093013593505050565b60006020828403121561025d57600080fd5b6102668261020b565b9392505050565b600060208083528351808285015260005b8181101561029a5785810183015185820160400152820161027e565b818111156102ac576000604083870101525b50601f01601f191692909201604001939250505056fea26469706673582212202cb6f9c30ce01bc9b318962c68c392e1cfabcdb53f5813360bcf256492c0a72564736f6c63430008090033",
  "devdoc": {
    "details": "ScoutsIdGenerator implementation When we generate the scouts skills and properties we take into account not only the random number(s) that comes along with it but also which contract minted it. We call such contract a Redeemer. We are starting with just one Redeemer (Tickets) that uses from id 0 to 4699;",
    "kind": "dev",
    "methods": {},
    "version": 1
  },
  "userdoc": {
    "kind": "user",
    "methods": {
      "REDEEMER_TICKET()": {
        "notice": "This is just so the different types are visible in the ABI"
      },
      "getScoutId(uint8,uint256)": {
        "notice": "We use uint8 instead of the Types enum because Scouts.sol is not upgradeable."
      },
      "typeBounds()": {
        "notice": "This is just a helper function to help with transparency"
      },
      "typeName(uint8)": {
        "notice": "This is just a helper function to help with transparency"
      }
    },
    "version": 1
  },
  "storageLayout": {
    "storage": [],
    "types": null
  }
}