{
  "address": "0x9E6a18E421449a02061878533208645DDb082691",
  "abi": [
    {
      "inputs": [
        {
          "internalType": "address",
          "name": "_scoutsAddress",
          "type": "address"
        },
        {
          "internalType": "address",
          "name": "_ticketsAddress",
          "type": "address"
        },
        {
          "internalType": "uint8",
          "name": "_requiredSeeds",
          "type": "uint8"
        }
      ],
      "stateMutability": "nonpayable",
      "type": "constructor"
    },
    {
      "anonymous": false,
      "inputs": [
        {
          "indexed": true,
          "internalType": "bytes32",
          "name": "role",
          "type": "bytes32"
        },
        {
          "indexed": true,
          "internalType": "bytes32",
          "name": "previousAdminRole",
          "type": "bytes32"
        },
        {
          "indexed": true,
          "internalType": "bytes32",
          "name": "newAdminRole",
          "type": "bytes32"
        }
      ],
      "name": "RoleAdminChanged",
      "type": "event"
    },
    {
      "anonymous": false,
      "inputs": [
        {
          "indexed": true,
          "internalType": "bytes32",
          "name": "role",
          "type": "bytes32"
        },
        {
          "indexed": true,
          "internalType": "address",
          "name": "account",
          "type": "address"
        },
        {
          "indexed": true,
          "internalType": "address",
          "name": "sender",
          "type": "address"
        }
      ],
      "name": "RoleGranted",
      "type": "event"
    },
    {
      "anonymous": false,
      "inputs": [
        {
          "indexed": true,
          "internalType": "bytes32",
          "name": "role",
          "type": "bytes32"
        },
        {
          "indexed": true,
          "internalType": "address",
          "name": "account",
          "type": "address"
        },
        {
          "indexed": true,
          "internalType": "address",
          "name": "sender",
          "type": "address"
        }
      ],
      "name": "RoleRevoked",
      "type": "event"
    },
    {
      "anonymous": false,
      "inputs": [
        {
          "indexed": true,
          "internalType": "uint256",
          "name": "ticketId",
          "type": "uint256"
        },
        {
          "indexed": true,
          "internalType": "uint256",
          "name": "scoutId",
          "type": "uint256"
        },
        {
          "indexed": true,
          "internalType": "address",
          "name": "owner",
          "type": "address"
        }
      ],
      "name": "TicketRedeemed",
      "type": "event"
    },
    {
      "inputs": [],
      "name": "DEFAULT_ADMIN_ROLE",
      "outputs": [
        {
          "internalType": "bytes32",
          "name": "",
          "type": "bytes32"
        }
      ],
      "stateMutability": "view",
      "type": "function"
    },
    {
      "inputs": [],
      "name": "REDEEMER_ROLE",
      "outputs": [
        {
          "internalType": "bytes32",
          "name": "",
          "type": "bytes32"
        }
      ],
      "stateMutability": "view",
      "type": "function"
    },
    {
      "inputs": [
        {
          "internalType": "bytes32",
          "name": "role",
          "type": "bytes32"
        }
      ],
      "name": "getRoleAdmin",
      "outputs": [
        {
          "internalType": "bytes32",
          "name": "",
          "type": "bytes32"
        }
      ],
      "stateMutability": "view",
      "type": "function"
    },
    {
      "inputs": [
        {
          "internalType": "bytes32",
          "name": "role",
          "type": "bytes32"
        },
        {
          "internalType": "address",
          "name": "account",
          "type": "address"
        }
      ],
      "name": "grantRole",
      "outputs": [],
      "stateMutability": "nonpayable",
      "type": "function"
    },
    {
      "inputs": [
        {
          "internalType": "bytes32",
          "name": "role",
          "type": "bytes32"
        },
        {
          "internalType": "address",
          "name": "account",
          "type": "address"
        }
      ],
      "name": "hasRole",
      "outputs": [
        {
          "internalType": "bool",
          "name": "",
          "type": "bool"
        }
      ],
      "stateMutability": "view",
      "type": "function"
    },
    {
      "inputs": [
        {
          "internalType": "uint256",
          "name": "_tokenId",
          "type": "uint256"
        }
      ],
      "name": "redeemExternalTicket",
      "outputs": [],
      "stateMutability": "nonpayable",
      "type": "function"
    },
    {
      "inputs": [
        {
          "internalType": "uint256",
          "name": "_tokenId",
          "type": "uint256"
        }
      ],
      "name": "redeemTicket",
      "outputs": [],
      "stateMutability": "nonpayable",
      "type": "function"
    },
    {
      "inputs": [
        {
          "internalType": "bytes32",
          "name": "role",
          "type": "bytes32"
        },
        {
          "internalType": "address",
          "name": "account",
          "type": "address"
        }
      ],
      "name": "renounceRole",
      "outputs": [],
      "stateMutability": "nonpayable",
      "type": "function"
    },
    {
      "inputs": [],
      "name": "requiredSeeds",
      "outputs": [
        {
          "internalType": "uint8",
          "name": "",
          "type": "uint8"
        }
      ],
      "stateMutability": "view",
      "type": "function"
    },
    {
      "inputs": [
        {
          "internalType": "bytes32",
          "name": "role",
          "type": "bytes32"
        },
        {
          "internalType": "address",
          "name": "account",
          "type": "address"
        }
      ],
      "name": "revokeRole",
      "outputs": [],
      "stateMutability": "nonpayable",
      "type": "function"
    },
    {
      "inputs": [],
      "name": "scoutsContract",
      "outputs": [
        {
          "internalType": "contract YouthScouts",
          "name": "",
          "type": "address"
        }
      ],
      "stateMutability": "view",
      "type": "function"
    },
    {
      "inputs": [
        {
          "internalType": "bytes4",
          "name": "interfaceId",
          "type": "bytes4"
        }
      ],
      "name": "supportsInterface",
      "outputs": [
        {
          "internalType": "bool",
          "name": "",
          "type": "bool"
        }
      ],
      "stateMutability": "view",
      "type": "function"
    },
    {
      "inputs": [],
      "name": "ticketsContract",
      "outputs": [
        {
          "internalType": "contract Vouchers",
          "name": "",
          "type": "address"
        }
      ],
      "stateMutability": "view",
      "type": "function"
    }
  ],
  "transactionHash": "0x3af5368927eda19182d596c441dec9b39f72e39026e6c8de9c06061a045be11d",
  "args": [
    "0xE8412eD89821BA4f11e9f6b80c8295a2FDE09945",
    "0xd90d9743d8b5a5b865fede3650a8e01b900b9241",
    1
  ],
  "solcInputHash": "ea7a4c131030fd6d2dcd25240a42e522",
  "bytecode": "0x608060405234801561001057600080fd5b50604051610d9f380380610d9f83398101604081905261002f91610150565b60018054600280546001600160a01b0319166001600160a01b03878116919091179091556001600160a81b03199091166101009185169190910260ff19161760ff8316179055610080600033610088565b50505061019d565b6100928282610096565b5050565b6000828152602081815260408083206001600160a01b038516845290915290205460ff16610092576000828152602081815260408083206001600160a01b03851684529091529020805460ff191660011790556100f03390565b6001600160a01b0316816001600160a01b0316837f2f8788117e7eff1d82e926ec794901d17c78024a50270940304540a733656f0d60405160405180910390a45050565b80516001600160a01b038116811461014b57600080fd5b919050565b60008060006060848603121561016557600080fd5b61016e84610134565b925061017c60208501610134565b9150604084015160ff8116811461019257600080fd5b809150509250925092565b610bf3806101ac6000396000f3fe608060405234801561001057600080fd5b50600436106100bf5760003560e01c8063526cee8d1161007c578063526cee8d146101775780637fa46ab4146101a757806391d14854146101ce578063a217fddf146101e1578063c681d5df146101e9578063d547741f146101fc578063f961a6171461020f57600080fd5b806301ffc9a7146100c45780630362b573146100ec57806315f59d7f1461010b578063248a9ca3146101205780632f2ff15d1461015157806336568abe14610164575b600080fd5b6100d76100d236600461099d565b610222565b60405190151581526020015b60405180910390f35b6001546100f99060ff1681565b60405160ff90911681526020016100e3565b61011e6101193660046109c7565b610259565b005b61014361012e3660046109c7565b60009081526020819052604090206001015490565b6040519081526020016100e3565b61011e61015f3660046109f5565b61034a565b61011e6101723660046109f5565b610375565b60015461018f9061010090046001600160a01b031681565b6040516001600160a01b0390911681526020016100e3565b6101437f44ac9762eec3a11893fefb11d028bb3102560094137c3ed4518712475b2577cc81565b6100d76101dc3660046109f5565b6103f3565b610143600081565b60025461018f906001600160a01b031681565b61011e61020a3660046109f5565b61041c565b61011e61021d3660046109c7565b610442565b60006001600160e01b03198216637965db0b60e01b148061025357506301ffc9a760e01b6001600160e01b03198316145b92915050565b6001546040516331a9108f60e11b8152600481018390526101009091046001600160a01b031690636352211e9060240160206040518083038186803b1580156102a157600080fd5b505afa1580156102b5573d6000803e3d6000fd5b505050506040513d601f19601f820116820180604052508101906102d99190610a25565b6001600160a01b0316336001600160a01b03161461033e5760405162461bcd60e51b815260206004820152601c60248201527f4f6e6c79207469636b6574206f776e65722063616e2072656465656d0000000060448201526064015b60405180910390fd5b61034781610472565b50565b60008281526020819052604090206001015461036681336106ad565b6103708383610711565b505050565b6001600160a01b03811633146103e55760405162461bcd60e51b815260206004820152602f60248201527f416363657373436f6e74726f6c3a2063616e206f6e6c792072656e6f756e636560448201526e103937b632b9903337b91039b2b63360891b6064820152608401610335565b6103ef8282610795565b5050565b6000918252602082815260408084206001600160a01b0393909316845291905290205460ff1690565b60008281526020819052604090206001015461043881336106ad565b6103708383610795565b7f44ac9762eec3a11893fefb11d028bb3102560094137c3ed4518712475b2577cc61046d81336106ad565b6103ef825b6001546040516331a9108f60e11b81526004810183905260009161010090046001600160a01b031690636352211e9060240160206040518083038186803b1580156104bc57600080fd5b505afa1580156104d0573d6000803e3d6000fd5b505050506040513d601f19601f820116820180604052508101906104f49190610a25565b600154604051633da3f60d60e11b81526004810185905291925061010090046001600160a01b031690637b47ec1a90602401600060405180830381600087803b15801561054057600080fd5b505af1158015610554573d6000803e3d6000fd5b50506002546001546040516310f1039d60e31b81526001600160a01b03868116600483015260ff9092166024820152600060448201819052606482018890529450911691506387881ce890608401602060405180830381600087803b1580156105bc57600080fd5b505af11580156105d0573d6000803e3d6000fd5b505050506040513d601f19601f820116820180604052508101906105f49190610a42565b6002546040516331a9108f60e11b8152600481018390529192506001600160a01b031690636352211e9060240160206040518083038186803b15801561063957600080fd5b505afa15801561064d573d6000803e3d6000fd5b505050506040513d601f19601f820116820180604052508101906106719190610a25565b6001600160a01b031681847f2b72d72c371e03ddb50dbdd7f3912c94eee9c54cf2c3791783d270dbcb5bfe5e60405160405180910390a4505050565b6106b782826103f3565b6103ef576106cf816001600160a01b031660146107fa565b6106da8360206107fa565b6040516020016106eb929190610a8b565b60408051601f198184030181529082905262461bcd60e51b825261033591600401610afa565b61071b82826103f3565b6103ef576000828152602081815260408083206001600160a01b03851684529091529020805460ff191660011790556107513390565b6001600160a01b0316816001600160a01b0316837f2f8788117e7eff1d82e926ec794901d17c78024a50270940304540a733656f0d60405160405180910390a45050565b61079f82826103f3565b156103ef576000828152602081815260408083206001600160a01b0385168085529252808320805460ff1916905551339285917ff6391f5c32d9c69d2a47ea670b442974b53935d1edc7fd64eb21e047a839171b9190a45050565b60606000610809836002610b43565b610814906002610b62565b67ffffffffffffffff81111561082c5761082c610b7a565b6040519080825280601f01601f191660200182016040528015610856576020820181803683370190505b509050600360fc1b8160008151811061087157610871610b90565b60200101906001600160f81b031916908160001a905350600f60fb1b816001815181106108a0576108a0610b90565b60200101906001600160f81b031916908160001a90535060006108c4846002610b43565b6108cf906001610b62565b90505b6001811115610947576f181899199a1a9b1b9c1cb0b131b232b360811b85600f166010811061090357610903610b90565b1a60f81b82828151811061091957610919610b90565b60200101906001600160f81b031916908160001a90535060049490941c9361094081610ba6565b90506108d2565b5083156109965760405162461bcd60e51b815260206004820181905260248201527f537472696e67733a20686578206c656e67746820696e73756666696369656e746044820152606401610335565b9392505050565b6000602082840312156109af57600080fd5b81356001600160e01b03198116811461099657600080fd5b6000602082840312156109d957600080fd5b5035919050565b6001600160a01b038116811461034757600080fd5b60008060408385031215610a0857600080fd5b823591506020830135610a1a816109e0565b809150509250929050565b600060208284031215610a3757600080fd5b8151610996816109e0565b600060208284031215610a5457600080fd5b5051919050565b60005b83811015610a76578181015183820152602001610a5e565b83811115610a85576000848401525b50505050565b76020b1b1b2b9b9a1b7b73a3937b61d1030b1b1b7bab73a1604d1b815260008351610abd816017850160208801610a5b565b7001034b99036b4b9b9b4b733903937b6329607d1b6017918401918201528351610aee816028840160208801610a5b565b01602801949350505050565b6020815260008251806020840152610b19816040850160208701610a5b565b601f01601f19169190910160400192915050565b634e487b7160e01b600052601160045260246000fd5b6000816000190483118215151615610b5d57610b5d610b2d565b500290565b60008219821115610b7557610b75610b2d565b500190565b634e487b7160e01b600052604160045260246000fd5b634e487b7160e01b600052603260045260246000fd5b600081610bb557610bb5610b2d565b50600019019056fea264697066735822122055e5775c97f51b680aacb1ba5b2e468323cdf8ef857be9397f30e305421e7c4164736f6c63430008090033",
  "devdoc": {
    "kind": "dev",
    "methods": {
      "getRoleAdmin(bytes32)": {
        "details": "Returns the admin role that controls `role`. See {grantRole} and {revokeRole}. To change a role's admin, use {_setRoleAdmin}."
      },
      "grantRole(bytes32,address)": {
        "details": "Grants `role` to `account`. If `account` had not been already granted `role`, emits a {RoleGranted} event. Requirements: - the caller must have ``role``'s admin role."
      },
      "hasRole(bytes32,address)": {
        "details": "Returns `true` if `account` has been granted `role`."
      },
      "renounceRole(bytes32,address)": {
        "details": "Revokes `role` from the calling account. Roles are often managed via {grantRole} and {revokeRole}: this function's purpose is to provide a mechanism for accounts to lose their privileges if they are compromised (such as when a trusted device is misplaced). If the calling account had been revoked `role`, emits a {RoleRevoked} event. Requirements: - the caller must be `account`."
      },
      "revokeRole(bytes32,address)": {
        "details": "Revokes `role` from `account`. If `account` had been granted `role`, emits a {RoleRevoked} event. Requirements: - the caller must have ``role``'s admin role."
      },
      "supportsInterface(bytes4)": {
        "details": "See {IERC165-supportsInterface}."
      }
    },
    "version": 1
  },
  "userdoc": {
    "kind": "user",
    "methods": {},
    "version": 1
  },
  "storageLayout": {
    "storage": [
      {
        "astId": 290,
        "contract": "contracts/TicketsRedeemer.sol:TicketsRedeemer",
        "label": "_roles",
        "offset": 0,
        "slot": "0",
        "type": "t_mapping(t_bytes32,t_struct(RoleData)285_storage)"
      },
      {
        "astId": 4663,
        "contract": "contracts/TicketsRedeemer.sol:TicketsRedeemer",
        "label": "requiredSeeds",
        "offset": 0,
        "slot": "1",
        "type": "t_uint8"
      },
      {
        "astId": 4666,
        "contract": "contracts/TicketsRedeemer.sol:TicketsRedeemer",
        "label": "ticketsContract",
        "offset": 1,
        "slot": "1",
        "type": "t_contract(Vouchers)5932"
      },
      {
        "astId": 4669,
        "contract": "contracts/TicketsRedeemer.sol:TicketsRedeemer",
        "label": "scoutsContract",
        "offset": 0,
        "slot": "2",
        "type": "t_contract(YouthScouts)4486"
      }
    ],
    "types": {
      "t_address": {
        "encoding": "inplace",
        "label": "address",
        "numberOfBytes": "20"
      },
      "t_bool": {
        "encoding": "inplace",
        "label": "bool",
        "numberOfBytes": "1"
      },
      "t_bytes32": {
        "encoding": "inplace",
        "label": "bytes32",
        "numberOfBytes": "32"
      },
      "t_contract(Vouchers)5932": {
        "encoding": "inplace",
        "label": "contract Vouchers",
        "numberOfBytes": "20"
      },
      "t_contract(YouthScouts)4486": {
        "encoding": "inplace",
        "label": "contract YouthScouts",
        "numberOfBytes": "20"
      },
      "t_mapping(t_address,t_bool)": {
        "encoding": "mapping",
        "key": "t_address",
        "label": "mapping(address => bool)",
        "numberOfBytes": "32",
        "value": "t_bool"
      },
      "t_mapping(t_bytes32,t_struct(RoleData)285_storage)": {
        "encoding": "mapping",
        "key": "t_bytes32",
        "label": "mapping(bytes32 => struct AccessControl.RoleData)",
        "numberOfBytes": "32",
        "value": "t_struct(RoleData)285_storage"
      },
      "t_struct(RoleData)285_storage": {
        "encoding": "inplace",
        "label": "struct AccessControl.RoleData",
        "members": [
          {
            "astId": 282,
            "contract": "contracts/TicketsRedeemer.sol:TicketsRedeemer",
            "label": "members",
            "offset": 0,
            "slot": "0",
            "type": "t_mapping(t_address,t_bool)"
          },
          {
            "astId": 284,
            "contract": "contracts/TicketsRedeemer.sol:TicketsRedeemer",
            "label": "adminRole",
            "offset": 0,
            "slot": "1",
            "type": "t_bytes32"
          }
        ],
        "numberOfBytes": "64"
      },
      "t_uint8": {
        "encoding": "inplace",
        "label": "uint8",
        "numberOfBytes": "1"
      }
    }
  }
}