{
  "address": "0xE8412eD89821BA4f11e9f6b80c8295a2FDE09945",
  "abi": [
    {
      "inputs": [
        {
          "internalType": "string",
          "name": "_description",
          "type": "string"
        },
        {
          "internalType": "string",
          "name": "_name",
          "type": "string"
        },
        {
          "internalType": "address",
          "name": "_entropyManager",
          "type": "address"
        },
        {
          "internalType": "address",
          "name": "_idGenerator",
          "type": "address"
        }
      ],
      "stateMutability": "nonpayable",
      "type": "constructor"
    },
    {
      "anonymous": false,
      "inputs": [
        {
          "indexed": true,
          "internalType": "address",
          "name": "owner",
          "type": "address"
        },
        {
          "indexed": true,
          "internalType": "address",
          "name": "approved",
          "type": "address"
        },
        {
          "indexed": true,
          "internalType": "uint256",
          "name": "tokenId",
          "type": "uint256"
        }
      ],
      "name": "Approval",
      "type": "event"
    },
    {
      "anonymous": false,
      "inputs": [
        {
          "indexed": true,
          "internalType": "address",
          "name": "owner",
          "type": "address"
        },
        {
          "indexed": true,
          "internalType": "address",
          "name": "operator",
          "type": "address"
        },
        {
          "indexed": false,
          "internalType": "bool",
          "name": "approved",
          "type": "bool"
        }
      ],
      "name": "ApprovalForAll",
      "type": "event"
    },
    {
      "anonymous": false,
      "inputs": [
        {
          "indexed": true,
          "internalType": "bytes32",
          "name": "role",
          "type": "bytes32"
        },
        {
          "indexed": true,
          "internalType": "bytes32",
          "name": "previousAdminRole",
          "type": "bytes32"
        },
        {
          "indexed": true,
          "internalType": "bytes32",
          "name": "newAdminRole",
          "type": "bytes32"
        }
      ],
      "name": "RoleAdminChanged",
      "type": "event"
    },
    {
      "anonymous": false,
      "inputs": [
        {
          "indexed": true,
          "internalType": "bytes32",
          "name": "role",
          "type": "bytes32"
        },
        {
          "indexed": true,
          "internalType": "address",
          "name": "account",
          "type": "address"
        },
        {
          "indexed": true,
          "internalType": "address",
          "name": "sender",
          "type": "address"
        }
      ],
      "name": "RoleGranted",
      "type": "event"
    },
    {
      "anonymous": false,
      "inputs": [
        {
          "indexed": true,
          "internalType": "bytes32",
          "name": "role",
          "type": "bytes32"
        },
        {
          "indexed": true,
          "internalType": "address",
          "name": "account",
          "type": "address"
        },
        {
          "indexed": true,
          "internalType": "address",
          "name": "sender",
          "type": "address"
        }
      ],
      "name": "RoleRevoked",
      "type": "event"
    },
    {
      "anonymous": false,
      "inputs": [
        {
          "indexed": true,
          "internalType": "address",
          "name": "from",
          "type": "address"
        },
        {
          "indexed": true,
          "internalType": "address",
          "name": "to",
          "type": "address"
        },
        {
          "indexed": true,
          "internalType": "uint256",
          "name": "tokenId",
          "type": "uint256"
        }
      ],
      "name": "Transfer",
      "type": "event"
    },
    {
      "inputs": [],
      "name": "DEFAULT_ADMIN_ROLE",
      "outputs": [
        {
          "internalType": "bytes32",
          "name": "",
          "type": "bytes32"
        }
      ],
      "stateMutability": "view",
      "type": "function"
    },
    {
      "inputs": [],
      "name": "MINTER_ROLE",
      "outputs": [
        {
          "internalType": "bytes32",
          "name": "",
          "type": "bytes32"
        }
      ],
      "stateMutability": "view",
      "type": "function"
    },
    {
      "inputs": [],
      "name": "SET_ATTRIBUTES_ROLE",
      "outputs": [
        {
          "internalType": "bytes32",
          "name": "",
          "type": "bytes32"
        }
      ],
      "stateMutability": "view",
      "type": "function"
    },
    {
      "inputs": [],
      "name": "SET_DNA_ROLE",
      "outputs": [
        {
          "internalType": "bytes32",
          "name": "",
          "type": "bytes32"
        }
      ],
      "stateMutability": "view",
      "type": "function"
    },
    {
      "inputs": [],
      "name": "SET_ENTROPY_ROLE",
      "outputs": [
        {
          "internalType": "bytes32",
          "name": "",
          "type": "bytes32"
        }
      ],
      "stateMutability": "view",
      "type": "function"
    },
    {
      "inputs": [
        {
          "internalType": "address",
          "name": "to",
          "type": "address"
        },
        {
          "internalType": "uint256",
          "name": "tokenId",
          "type": "uint256"
        }
      ],
      "name": "approve",
      "outputs": [],
      "stateMutability": "nonpayable",
      "type": "function"
    },
    {
      "inputs": [
        {
          "internalType": "address",
          "name": "owner",
          "type": "address"
        }
      ],
      "name": "balanceOf",
      "outputs": [
        {
          "internalType": "uint256",
          "name": "",
          "type": "uint256"
        }
      ],
      "stateMutability": "view",
      "type": "function"
    },
    {
      "inputs": [
        {
          "internalType": "uint256",
          "name": "_tokenId",
          "type": "uint256"
        }
      ],
      "name": "burnToken",
      "outputs": [],
      "stateMutability": "nonpayable",
      "type": "function"
    },
    {
      "inputs": [],
      "name": "contractURI",
      "outputs": [
        {
          "internalType": "string",
          "name": "",
          "type": "string"
        }
      ],
      "stateMutability": "view",
      "type": "function"
    },
    {
      "inputs": [],
      "name": "entropyManager",
      "outputs": [
        {
          "internalType": "contract IEntropyManager",
          "name": "",
          "type": "address"
        }
      ],
      "stateMutability": "view",
      "type": "function"
    },
    {
      "inputs": [
        {
          "internalType": "uint256",
          "name": "",
          "type": "uint256"
        },
        {
          "internalType": "uint256",
          "name": "",
          "type": "uint256"
        }
      ],
      "name": "entropyStorage",
      "outputs": [
        {
          "internalType": "bool",
          "name": "finished",
          "type": "bool"
        },
        {
          "internalType": "uint256",
          "name": "value",
          "type": "uint256"
        }
      ],
      "stateMutability": "view",
      "type": "function"
    },
    {
      "inputs": [
        {
          "internalType": "uint256",
          "name": "tokenId",
          "type": "uint256"
        }
      ],
      "name": "getApproved",
      "outputs": [
        {
          "internalType": "address",
          "name": "",
          "type": "address"
        }
      ],
      "stateMutability": "view",
      "type": "function"
    },
    {
      "inputs": [
        {
          "internalType": "uint256",
          "name": "_tokenId",
          "type": "uint256"
        },
        {
          "internalType": "uint256",
          "name": "_index",
          "type": "uint256"
        }
      ],
      "name": "getEntropy",
      "outputs": [
        {
          "internalType": "uint256",
          "name": "",
          "type": "uint256"
        }
      ],
      "stateMutability": "view",
      "type": "function"
    },
    {
      "inputs": [
        {
          "internalType": "address",
          "name": "owner",
          "type": "address"
        }
      ],
      "name": "getOwnedTokenIds",
      "outputs": [
        {
          "internalType": "uint256[]",
          "name": "",
          "type": "uint256[]"
        }
      ],
      "stateMutability": "view",
      "type": "function"
    },
    {
      "inputs": [
        {
          "internalType": "bytes32",
          "name": "role",
          "type": "bytes32"
        }
      ],
      "name": "getRoleAdmin",
      "outputs": [
        {
          "internalType": "bytes32",
          "name": "",
          "type": "bytes32"
        }
      ],
      "stateMutability": "view",
      "type": "function"
    },
    {
      "inputs": [
        {
          "internalType": "uint256",
          "name": "_tokenId",
          "type": "uint256"
        }
      ],
      "name": "getTokenOrigin",
      "outputs": [
        {
          "internalType": "uint256[2]",
          "name": "",
          "type": "uint256[2]"
        }
      ],
      "stateMutability": "view",
      "type": "function"
    },
    {
      "inputs": [
        {
          "internalType": "bytes32",
          "name": "role",
          "type": "bytes32"
        },
        {
          "internalType": "address",
          "name": "account",
          "type": "address"
        }
      ],
      "name": "grantRole",
      "outputs": [],
      "stateMutability": "nonpayable",
      "type": "function"
    },
    {
      "inputs": [
        {
          "internalType": "uint256",
          "name": "_tokenId",
          "type": "uint256"
        },
        {
          "internalType": "uint256",
          "name": "_index",
          "type": "uint256"
        }
      ],
      "name": "hasEntropy",
      "outputs": [
        {
          "internalType": "bool",
          "name": "",
          "type": "bool"
        }
      ],
      "stateMutability": "view",
      "type": "function"
    },
    {
      "inputs": [
        {
          "internalType": "bytes32",
          "name": "role",
          "type": "bytes32"
        },
        {
          "internalType": "address",
          "name": "account",
          "type": "address"
        }
      ],
      "name": "hasRole",
      "outputs": [
        {
          "internalType": "bool",
          "name": "",
          "type": "bool"
        }
      ],
      "stateMutability": "view",
      "type": "function"
    },
    {
      "inputs": [],
      "name": "idGenerator",
      "outputs": [
        {
          "internalType": "contract IScoutsIdGenerator",
          "name": "",
          "type": "address"
        }
      ],
      "stateMutability": "view",
      "type": "function"
    },
    {
      "inputs": [
        {
          "internalType": "address",
          "name": "owner",
          "type": "address"
        },
        {
          "internalType": "address",
          "name": "operator",
          "type": "address"
        }
      ],
      "name": "isApprovedForAll",
      "outputs": [
        {
          "internalType": "bool",
          "name": "",
          "type": "bool"
        }
      ],
      "stateMutability": "view",
      "type": "function"
    },
    {
      "inputs": [],
      "name": "metadata_uri",
      "outputs": [
        {
          "internalType": "string",
          "name": "",
          "type": "string"
        }
      ],
      "stateMutability": "view",
      "type": "function"
    },
    {
      "inputs": [
        {
          "internalType": "address",
          "name": "_owner",
          "type": "address"
        },
        {
          "internalType": "uint8",
          "name": "_randomSeeds",
          "type": "uint8"
        },
        {
          "internalType": "uint8",
          "name": "_reedemerName",
          "type": "uint8"
        },
        {
          "internalType": "uint256",
          "name": "_generatorTokenId",
          "type": "uint256"
        }
      ],
      "name": "mintScout",
      "outputs": [
        {
          "internalType": "uint256",
          "name": "",
          "type": "uint256"
        }
      ],
      "stateMutability": "nonpayable",
      "type": "function"
    },
    {
      "inputs": [],
      "name": "name",
      "outputs": [
        {
          "internalType": "string",
          "name": "",
          "type": "string"
        }
      ],
      "stateMutability": "view",
      "type": "function"
    },
    {
      "inputs": [
        {
          "internalType": "uint256",
          "name": "tokenId",
          "type": "uint256"
        }
      ],
      "name": "ownerOf",
      "outputs": [
        {
          "internalType": "address",
          "name": "",
          "type": "address"
        }
      ],
      "stateMutability": "view",
      "type": "function"
    },
    {
      "inputs": [
        {
          "internalType": "bytes32",
          "name": "role",
          "type": "bytes32"
        },
        {
          "internalType": "address",
          "name": "account",
          "type": "address"
        }
      ],
      "name": "renounceRole",
      "outputs": [],
      "stateMutability": "nonpayable",
      "type": "function"
    },
    {
      "inputs": [
        {
          "internalType": "bytes32",
          "name": "role",
          "type": "bytes32"
        },
        {
          "internalType": "address",
          "name": "account",
          "type": "address"
        }
      ],
      "name": "revokeRole",
      "outputs": [],
      "stateMutability": "nonpayable",
      "type": "function"
    },
    {
      "inputs": [
        {
          "internalType": "address",
          "name": "from",
          "type": "address"
        },
        {
          "internalType": "address",
          "name": "to",
          "type": "address"
        },
        {
          "internalType": "uint256",
          "name": "tokenId",
          "type": "uint256"
        }
      ],
      "name": "safeTransferFrom",
      "outputs": [],
      "stateMutability": "nonpayable",
      "type": "function"
    },
    {
      "inputs": [
        {
          "internalType": "address",
          "name": "from",
          "type": "address"
        },
        {
          "internalType": "address",
          "name": "to",
          "type": "address"
        },
        {
          "internalType": "uint256",
          "name": "tokenId",
          "type": "uint256"
        },
        {
          "internalType": "bytes",
          "name": "_data",
          "type": "bytes"
        }
      ],
      "name": "safeTransferFrom",
      "outputs": [],
      "stateMutability": "nonpayable",
      "type": "function"
    },
    {
      "inputs": [
        {
          "internalType": "address",
          "name": "operator",
          "type": "address"
        },
        {
          "internalType": "bool",
          "name": "approved",
          "type": "bool"
        }
      ],
      "name": "setApprovalForAll",
      "outputs": [],
      "stateMutability": "nonpayable",
      "type": "function"
    },
    {
      "inputs": [
        {
          "internalType": "uint256",
          "name": "_tokenId",
          "type": "uint256"
        },
        {
          "internalType": "string",
          "name": "_attribute",
          "type": "string"
        },
        {
          "internalType": "string",
          "name": "_value",
          "type": "string"
        }
      ],
      "name": "setAttribute",
      "outputs": [],
      "stateMutability": "nonpayable",
      "type": "function"
    },
    {
      "inputs": [
        {
          "internalType": "uint256",
          "name": "_tokenId",
          "type": "uint256"
        },
        {
          "internalType": "string",
          "name": "_dna",
          "type": "string"
        }
      ],
      "name": "setDNA",
      "outputs": [],
      "stateMutability": "nonpayable",
      "type": "function"
    },
    {
      "inputs": [
        {
          "internalType": "uint256",
          "name": "_tokenId",
          "type": "uint256"
        },
        {
          "internalType": "uint256",
          "name": "_index",
          "type": "uint256"
        },
        {
          "internalType": "uint256",
          "name": "_randomness",
          "type": "uint256"
        }
      ],
      "name": "setEntropy",
      "outputs": [],
      "stateMutability": "nonpayable",
      "type": "function"
    },
    {
      "inputs": [
        {
          "internalType": "address",
          "name": "_entropyManager",
          "type": "address"
        }
      ],
      "name": "setEntropyManager",
      "outputs": [],
      "stateMutability": "nonpayable",
      "type": "function"
    },
    {
      "inputs": [
        {
          "internalType": "address",
          "name": "_newIdGenerator",
          "type": "address"
        }
      ],
      "name": "setIdGenerator",
      "outputs": [],
      "stateMutability": "nonpayable",
      "type": "function"
    },
    {
      "inputs": [
        {
          "internalType": "string",
          "name": "_new_uri",
          "type": "string"
        }
      ],
      "name": "setMetadataURI",
      "outputs": [],
      "stateMutability": "nonpayable",
      "type": "function"
    },
    {
      "inputs": [
        {
          "internalType": "bytes4",
          "name": "_interfaceId",
          "type": "bytes4"
        }
      ],
      "name": "supportsInterface",
      "outputs": [
        {
          "internalType": "bool",
          "name": "",
          "type": "bool"
        }
      ],
      "stateMutability": "view",
      "type": "function"
    },
    {
      "inputs": [],
      "name": "symbol",
      "outputs": [
        {
          "internalType": "string",
          "name": "",
          "type": "string"
        }
      ],
      "stateMutability": "view",
      "type": "function"
    },
    {
      "inputs": [
        {
          "internalType": "uint256",
          "name": "",
          "type": "uint256"
        },
        {
          "internalType": "string",
          "name": "",
          "type": "string"
        }
      ],
      "name": "tokenAttributes",
      "outputs": [
        {
          "internalType": "string",
          "name": "",
          "type": "string"
        }
      ],
      "stateMutability": "view",
      "type": "function"
    },
    {
      "inputs": [
        {
          "internalType": "uint256",
          "name": "index",
          "type": "uint256"
        }
      ],
      "name": "tokenByIndex",
      "outputs": [
        {
          "internalType": "uint256",
          "name": "",
          "type": "uint256"
        }
      ],
      "stateMutability": "view",
      "type": "function"
    },
    {
      "inputs": [
        {
          "internalType": "uint256",
          "name": "",
          "type": "uint256"
        }
      ],
      "name": "tokenDNA",
      "outputs": [
        {
          "internalType": "string",
          "name": "",
          "type": "string"
        }
      ],
      "stateMutability": "view",
      "type": "function"
    },
    {
      "inputs": [
        {
          "internalType": "uint256",
          "name": "",
          "type": "uint256"
        },
        {
          "internalType": "uint256",
          "name": "",
          "type": "uint256"
        }
      ],
      "name": "tokenGenerator",
      "outputs": [
        {
          "internalType": "uint256",
          "name": "",
          "type": "uint256"
        }
      ],
      "stateMutability": "view",
      "type": "function"
    },
    {
      "inputs": [
        {
          "internalType": "address",
          "name": "owner",
          "type": "address"
        },
        {
          "internalType": "uint256",
          "name": "index",
          "type": "uint256"
        }
      ],
      "name": "tokenOfOwnerByIndex",
      "outputs": [
        {
          "internalType": "uint256",
          "name": "",
          "type": "uint256"
        }
      ],
      "stateMutability": "view",
      "type": "function"
    },
    {
      "inputs": [
        {
          "internalType": "uint256",
          "name": "_tokenId",
          "type": "uint256"
        }
      ],
      "name": "tokenURI",
      "outputs": [
        {
          "internalType": "string",
          "name": "",
          "type": "string"
        }
      ],
      "stateMutability": "view",
      "type": "function"
    },
    {
      "inputs": [],
      "name": "totalSupply",
      "outputs": [
        {
          "internalType": "uint256",
          "name": "",
          "type": "uint256"
        }
      ],
      "stateMutability": "view",
      "type": "function"
    },
    {
      "inputs": [
        {
          "internalType": "address",
          "name": "from",
          "type": "address"
        },
        {
          "internalType": "address",
          "name": "to",
          "type": "address"
        },
        {
          "internalType": "uint256",
          "name": "tokenId",
          "type": "uint256"
        }
      ],
      "name": "transferFrom",
      "outputs": [],
      "stateMutability": "nonpayable",
      "type": "function"
    },
    {
      "inputs": [
        {
          "internalType": "address",
          "name": "_address",
          "type": "address"
        },
        {
          "internalType": "uint256",
          "name": "_amount",
          "type": "uint256"
        }
      ],
      "name": "withdrawERC20",
      "outputs": [],
      "stateMutability": "nonpayable",
      "type": "function"
    },
    {
      "inputs": [
        {
          "internalType": "address",
          "name": "_token",
          "type": "address"
        },
        {
          "internalType": "uint256",
          "name": "_tokenId",
          "type": "uint256"
        }
      ],
      "name": "withdrawNFT",
      "outputs": [],
      "stateMutability": "nonpayable",
      "type": "function"
    }
  ],
  "transactionHash": "0x514896dc168b5bd707878d8fa04f75084cdd1dcaed21aa09a42a36fc8621bdbd",
  "args": [
    "Test Youth Scouts",
    "TYS",
    "0x23A8E2c5EaD54d1b02D09275E293eBeB820B126e",
    "0xa5299B89c5f1e8A6D525B801f42342dc18335964"
  ],
  "solcInputHash": "ea7a4c131030fd6d2dcd25240a42e522",
  "bytecode": "0x60e06040526026608081815290620031b860a0398051620000299160129160209091019062000196565b503480156200003757600080fd5b50604051620031de380380620031de8339810160408190526200005a9162000326565b8351849084906200007390600090602085019062000196565b5080516200008990600190602084019062000196565b506200009b91506000905033620000e2565b620000a8600033620000e2565b6001600c55601080546001600160a01b039384166001600160a01b0319918216179091556011805492909316911617905550620003f29050565b620000ee8282620000f2565b5050565b6000828152600a602090815260408083206001600160a01b038516845290915290205460ff16620000ee576000828152600a602090815260408083206001600160a01b03851684529091529020805460ff19166001179055620001523390565b6001600160a01b0316816001600160a01b0316837f2f8788117e7eff1d82e926ec794901d17c78024a50270940304540a733656f0d60405160405180910390a45050565b828054620001a490620003b5565b90600052602060002090601f016020900481019282620001c8576000855562000213565b82601f10620001e357805160ff191683800117855562000213565b8280016001018555821562000213579182015b8281111562000213578251825591602001919060010190620001f6565b506200022192915062000225565b5090565b5b8082111562000221576000815560010162000226565b634e487b7160e01b600052604160045260246000fd5b600082601f8301126200026457600080fd5b81516001600160401b03808211156200028157620002816200023c565b604051601f8301601f19908116603f01168101908282118183101715620002ac57620002ac6200023c565b81604052838152602092508683858801011115620002c957600080fd5b600091505b83821015620002ed5785820183015181830184015290820190620002ce565b83821115620002ff5760008385830101525b9695505050505050565b80516001600160a01b03811681146200032157600080fd5b919050565b600080600080608085870312156200033d57600080fd5b84516001600160401b03808211156200035557600080fd5b620003638883890162000252565b955060208701519150808211156200037a57600080fd5b50620003898782880162000252565b9350506200039a6040860162000309565b9150620003aa6060860162000309565b905092959194509250565b600181811c90821680620003ca57607f821691505b60208210811415620003ec57634e487b7160e01b600052602260045260246000fd5b50919050565b612db680620004026000396000f3fe608060405234801561001057600080fd5b50600436106102a05760003560e01c8063750521f511610167578063c807eee9116100ce578063e8a3d48511610087578063e8a3d48514610688578063e985e9c514610690578063ea276848146106a3578063efaf5c36146106b6578063fa485ab4146106c9578063fa5eec10146106dc57600080fd5b8063c807eee9146105ee578063c87b56dd14610601578063ca9ef52b14610614578063d53913931461063b578063d547741f14610662578063e7bd92b91461067557600080fd5b8063a217fddf11610120578063a217fddf1461057e578063a22cb46514610586578063b88d4fde14610599578063b960663b146105ac578063be65d751146105d3578063bf7f9f52146105e657600080fd5b8063750521f5146105175780637b47ec1a1461052a57806387881ce81461053d57806391d148541461055057806395d89b4114610563578063a1db97821461056b57600080fd5b80633c1a40201161020b5780635514a4a8116101c45780635514a4a8146104845780636088e93a146104975780636117c1f9146104aa5780636352211e146104ca5780636d1fce2c146104dd57806370a082311461050457600080fd5b80633c1a4020146103c95780633f879c22146103dc57806342842e0e146103ef5780634c5181c9146104025780634f6ccce7146104515780634fac7e411461046457600080fd5b8063248a9ca31161025d578063248a9ca3146103475780632f2ff15d1461036a5780632f745c591461037d5780632fb7b9511461039057806336568abe146103a3578063392bb0f3146103b657600080fd5b806301ffc9a7146102a557806306fdde03146102cd578063081812fc146102e2578063095ea7b31461030d57806318160ddd1461032257806323b872dd14610334575b600080fd5b6102b86102b3366004612490565b61070a565b60405190151581526020015b60405180910390f35b6102d561071b565b6040516102c49190612505565b6102f56102f0366004612518565b6107ad565b6040516001600160a01b0390911681526020016102c4565b61032061031b36600461254d565b61083a565b005b6008545b6040519081526020016102c4565b610320610342366004612577565b61094b565b610326610355366004612518565b6000908152600a602052604090206001015490565b6103206103783660046125b3565b61097c565b61032661038b36600461254d565b6109a2565b6010546102f5906001600160a01b031681565b6103206103b13660046125b3565b610a38565b6103206103c43660046125df565b610ab6565b6103266103d736600461260b565b610b9c565b6103266103ea36600461260b565b610c26565b6103206103fd366004612577565b610c4b565b61043a61041036600461260b565b600b6020908152600092835260408084209091529082529020805460019091015460ff9091169082565b6040805192151583526020830191909152016102c4565b61032661045f366004612518565b610c66565b61047761047236600461262d565b610cf9565b6040516102c49190612648565b610320610492366004612737565b610d9c565b6103206104a536600461254d565b610e11565b6104bd6104b8366004612518565b610e88565b6040516102c491906127a3565b6102f56104d8366004612518565b610ecf565b6103267fddddc85fb591517168f442e3f061420733f94e9f166110385de7239da005262c81565b61032661051236600461262d565b610f46565b6103206105253660046127d4565b610fcd565b610320610538366004612518565b610fec565b61032661054b366004612819565b61104e565b6102b861055e3660046125b3565b611268565b6102d5611293565b61032061057936600461254d565b6112a2565b610326600081565b610320610594366004612872565b611334565b6103206105a73660046128a9565b61133f565b6103267fa6ad6034f945b9833b20bf0136e79fd319e849cdcdc9abaa6cad9f43907350c381565b6102d56105e1366004612518565b611371565b6102d561140b565b6103206105fc36600461262d565b611418565b6102d561060f366004612518565b611447565b6103267f4ed81d1b25e5f8d96fa8676ce75abf9ddca3fb6c7f8974e5cfc5842062cbbe1a81565b6103267f9f2df0fed2c77648de5860a4cc508cd0818c85b8b8a1ab4ceeef8d981c8956a681565b6103206106703660046125b3565b61147b565b6011546102f5906001600160a01b031681565b6102d56114a1565b6102b861069e366004612924565b6114b0565b6103206106b136600461294e565b6114de565b6103206106c436600461262d565b611585565b6102d56106d736600461294e565b6115b4565b6102b86106ea36600461260b565b6000918252600b6020908152604080842092845291905290205460ff1690565b6000610715826115e9565b92915050565b60606000805461072a90612994565b80601f016020809104026020016040519081016040528092919081815260200182805461075690612994565b80156107a35780601f10610778576101008083540402835291602001916107a3565b820191906000526020600020905b81548152906001019060200180831161078657829003601f168201915b5050505050905090565b60006107b88261160e565b61081e5760405162461bcd60e51b815260206004820152602c60248201527f4552433732313a20617070726f76656420717565727920666f72206e6f6e657860448201526b34b9ba32b73a103a37b5b2b760a11b60648201526084015b60405180910390fd5b506000908152600460205260409020546001600160a01b031690565b600061084582610ecf565b9050806001600160a01b0316836001600160a01b031614156108b35760405162461bcd60e51b815260206004820152602160248201527f4552433732313a20617070726f76616c20746f2063757272656e74206f776e656044820152603960f91b6064820152608401610815565b336001600160a01b03821614806108cf57506108cf81336114b0565b61093c5760405162461bcd60e51b815260206004820152603860248201527f4552433732313a20617070726f76652063616c6c6572206973206e6f74206f776044820152771b995c881b9bdc88185c1c1c9bdd995908199bdc88185b1b60421b6064820152608401610815565b610946838361162b565b505050565b6109553382611699565b6109715760405162461bcd60e51b8152600401610815906129cf565b610946838383611763565b6000828152600a602052604090206001015461099881336118fc565b6109468383611960565b60006109ad83610f46565b8210610a0f5760405162461bcd60e51b815260206004820152602b60248201527f455243373231456e756d657261626c653a206f776e657220696e646578206f7560448201526a74206f6620626f756e647360a81b6064820152608401610815565b506001600160a01b03919091166000908152600660209081526040808320938352929052205490565b6001600160a01b0381163314610aa85760405162461bcd60e51b815260206004820152602f60248201527f416363657373436f6e74726f6c3a2063616e206f6e6c792072656e6f756e636560448201526e103937b632b9903337b91039b2b63360891b6064820152608401610815565b610ab282826119e6565b5050565b7f4ed81d1b25e5f8d96fa8676ce75abf9ddca3fb6c7f8974e5cfc5842062cbbe1a610ae181336118fc565b6000848152600b602090815260408083208684528252918290208251808401909352805460ff16158015845260019091015491830191909152610b615760405162461bcd60e51b815260206004820152601860248201527753657474696e67206578697374656e7420656e74726f707960401b6044820152606401610815565b602081810193845260018083526000968752600b8252604080882096885295909152939094209351845460ff19169015151784555051910155565b6000828152600b6020908152604080832084845290915281205460ff16610c055760405162461bcd60e51b815260206004820152601c60248201527f51756572696564206e6f6e2d6578697374656e7420656e74726f7079000000006044820152606401610815565b506000918252600b6020908152604080842092845291905290206001015490565b600f6020528160005260406000208160028110610c4257600080fd5b01549150829050565b6109468383836040518060200160405280600081525061133f565b6000610c7160085490565b8210610cd45760405162461bcd60e51b815260206004820152602c60248201527f455243373231456e756d657261626c653a20676c6f62616c20696e646578206f60448201526b7574206f6620626f756e647360a01b6064820152608401610815565b60088281548110610ce757610ce7612a20565b90600052602060002001549050919050565b60606000610d0683610f46565b6001600160401b03811115610d1d57610d1d61268c565b604051908082528060200260200182016040528015610d46578160200160208202803683370190505b50905060005b610d5584610f46565b811015610d9557610d6684826109a2565b828281518110610d7857610d78612a20565b602090810291909101015280610d8d81612a4c565b915050610d4c565b5092915050565b7fa6ad6034f945b9833b20bf0136e79fd319e849cdcdc9abaa6cad9f43907350c3610dc781336118fc565b81600e600086815260200190815260200160002084604051610de99190612a83565b90815260200160405180910390209080519060200190610e0a9291906123c3565b5050505050565b6000610e1d81336118fc565b604051632142170760e11b8152306004820152336024820152604481018390526001600160a01b038416906342842e0e90606401600060405180830381600087803b158015610e6b57600080fd5b505af1158015610e7f573d6000803e3d6000fd5b50505050505050565b610e90612447565b6000828152600f6020526040908190208151808301928390529160029082845b815481526020019060010190808311610eb05750505050509050919050565b6000818152600260205260408120546001600160a01b0316806107155760405162461bcd60e51b815260206004820152602960248201527f4552433732313a206f776e657220717565727920666f72206e6f6e657869737460448201526832b73a103a37b5b2b760b91b6064820152608401610815565b60006001600160a01b038216610fb15760405162461bcd60e51b815260206004820152602a60248201527f4552433732313a2062616c616e636520717565727920666f7220746865207a65604482015269726f206164647265737360b01b6064820152608401610815565b506001600160a01b031660009081526003602052604090205490565b6000610fd981336118fc565b81516109469060129060208501906123c3565b610ff63382611699565b6110425760405162461bcd60e51b815260206004820181905260248201527f53656e646572206973206e6f74206f776e6572206e6f7220617070726f7665646044820152606401610815565b61104b81611a4d565b50565b60007f9f2df0fed2c77648de5860a4cc508cd0818c85b8b8a1ab4ceeef8d981c8956a661107b81336118fc565b6002600c5414156110ce5760405162461bcd60e51b815260206004820152601f60248201527f5265656e7472616e637947756172643a207265656e7472616e742063616c6c006044820152606401610815565b6002600c556001600160a01b0386166111215760405162461bcd60e51b8152602060048201526015602482015274496e76616c6964206f776e6572206164647265737360581b6044820152606401610815565b601154604051635f85621760e01b815260ff86166004820152602481018590526000916001600160a01b031690635f8562179060440160206040518083038186803b15801561116f57600080fd5b505afa158015611183573d6000803e3d6000fd5b505050506040513d601f19601f820116820180604052508101906111a79190612a9f565b6000818152600f6020526040812060ff881681556001018690559091505b8660ff1681101561124e5760105460405163405abbab60e01b815230600482015260248101849052604481018390526001600160a01b039091169063405abbab90606401600060405180830381600087803b15801561122357600080fd5b505af1158015611237573d6000803e3d6000fd5b50505050808061124690612a4c565b9150506111c5565b506112598782611ae2565b6001600c559695505050505050565b6000918252600a602090815260408084206001600160a01b0393909316845291905290205460ff1690565b60606001805461072a90612994565b60006112ae81336118fc565b60405163a9059cbb60e01b8152336004820152602481018390526001600160a01b0384169063a9059cbb90604401602060405180830381600087803b1580156112f657600080fd5b505af115801561130a573d6000803e3d6000fd5b505050506040513d601f19601f8201168201806040525081019061132e9190612ab8565b50505050565b610ab2338383611afc565b6113493383611699565b6113655760405162461bcd60e51b8152600401610815906129cf565b61132e84848484611bc7565b600d602052600090815260409020805461138a90612994565b80601f01602080910402602001604051908101604052809291908181526020018280546113b690612994565b80156114035780601f106113d857610100808354040283529160200191611403565b820191906000526020600020905b8154815290600101906020018083116113e657829003601f168201915b505050505081565b6012805461138a90612994565b600061142481336118fc565b50601080546001600160a01b0319166001600160a01b0392909216919091179055565b6060601261145483611bfa565b604051602001611465929190612ad5565b6040516020818303038152906040529050919050565b6000828152600a602052604090206001015461149781336118fc565b61094683836119e6565b60606012805461072a90612994565b6001600160a01b03918216600090815260056020908152604080832093909416825291909152205460ff1690565b7fddddc85fb591517168f442e3f061420733f94e9f166110385de7239da005262c61150981336118fc565b6000838152600d60205260409020805461152290612994565b1590506115665760405162461bcd60e51b8152602060048201526012602482015271444e4120616c72656164792065786973747360701b6044820152606401610815565b6000838152600d60209081526040909120835161132e928501906123c3565b600061159181336118fc565b50601180546001600160a01b0319166001600160a01b0392909216919091179055565b600e60209081526000928352604090922081518083018401805192815290840192909301919091209152805461138a90612994565b60006001600160e01b03198216637965db0b60e01b1480610715575061071582611cf7565b6000908152600260205260409020546001600160a01b0316151590565b600081815260046020526040902080546001600160a01b0319166001600160a01b038416908117909155819061166082610ecf565b6001600160a01b03167f8c5be1e5ebec7d5bd14f71427d1e84f3dd0314c0f7b2291e5b200ac8c7c3b92560405160405180910390a45050565b60006116a48261160e565b6117055760405162461bcd60e51b815260206004820152602c60248201527f4552433732313a206f70657261746f7220717565727920666f72206e6f6e657860448201526b34b9ba32b73a103a37b5b2b760a11b6064820152608401610815565b600061171083610ecf565b9050806001600160a01b0316846001600160a01b0316148061174b5750836001600160a01b0316611740846107ad565b6001600160a01b0316145b8061175b575061175b81856114b0565b949350505050565b826001600160a01b031661177682610ecf565b6001600160a01b0316146117de5760405162461bcd60e51b815260206004820152602960248201527f4552433732313a207472616e73666572206f6620746f6b656e2074686174206960448201526839903737ba1037bbb760b91b6064820152608401610815565b6001600160a01b0382166118405760405162461bcd60e51b8152602060048201526024808201527f4552433732313a207472616e7366657220746f20746865207a65726f206164646044820152637265737360e01b6064820152608401610815565b61184b838383611d1c565b61185660008261162b565b6001600160a01b038316600090815260036020526040812080546001929061187f908490612b8c565b90915550506001600160a01b03821660009081526003602052604081208054600192906118ad908490612ba3565b909155505060008181526002602052604080822080546001600160a01b0319166001600160a01b038681169182179092559151849391871691600080516020612d6183398151915291a4505050565b6119068282611268565b610ab25761191e816001600160a01b03166014611dd4565b611929836020611dd4565b60405160200161193a929190612bbb565b60408051601f198184030181529082905262461bcd60e51b825261081591600401612505565b61196a8282611268565b610ab2576000828152600a602090815260408083206001600160a01b03851684529091529020805460ff191660011790556119a23390565b6001600160a01b0316816001600160a01b0316837f2f8788117e7eff1d82e926ec794901d17c78024a50270940304540a733656f0d60405160405180910390a45050565b6119f08282611268565b15610ab2576000828152600a602090815260408083206001600160a01b0385168085529252808320805460ff1916905551339285917ff6391f5c32d9c69d2a47ea670b442974b53935d1edc7fd64eb21e047a839171b9190a45050565b6000611a5882610ecf565b9050611a6681600084611d1c565b611a7160008361162b565b6001600160a01b0381166000908152600360205260408120805460019290611a9a908490612b8c565b909155505060008281526002602052604080822080546001600160a01b0319169055518391906001600160a01b03841690600080516020612d61833981519152908390a45050565b610ab2828260405180602001604052806000815250611f76565b816001600160a01b0316836001600160a01b03161415611b5a5760405162461bcd60e51b815260206004820152601960248201527822a9219b99189d1030b8383937bb32903a379031b0b63632b960391b6044820152606401610815565b6001600160a01b03838116600081815260056020908152604080832094871680845294825291829020805460ff191686151590811790915591519182527f17307eab39ab6107e8899845ad3d59bd9653f200f220920489ca2b5937696c31910160405180910390a3505050565b611bd2848484611763565b611bde84848484611fa9565b61132e5760405162461bcd60e51b815260040161081590612c2a565b606081611c1e5750506040805180820190915260018152600360fc1b602082015290565b8160005b8115611c485780611c3281612a4c565b9150611c419050600a83612c92565b9150611c22565b6000816001600160401b03811115611c6257611c6261268c565b6040519080825280601f01601f191660200182016040528015611c8c576020820181803683370190505b5090505b841561175b57611ca1600183612b8c565b9150611cae600a86612ca6565b611cb9906030612ba3565b60f81b818381518110611cce57611cce612a20565b60200101906001600160f81b031916908160001a905350611cf0600a86612c92565b9450611c90565b60006001600160e01b0319821663780e9d6360e01b14806107155750610715826120b6565b6001600160a01b038316611d7757611d7281600880546000838152600960205260408120829055600182018355919091527ff3f7a9fe364faab93b216da50a3214154f22a0a2b415b23a84c8169e8b636ee30155565b611d9a565b816001600160a01b0316836001600160a01b031614611d9a57611d9a8382612106565b6001600160a01b038216611db157610946816121a3565b826001600160a01b0316826001600160a01b031614610946576109468282612252565b60606000611de3836002612cba565b611dee906002612ba3565b6001600160401b03811115611e0557611e0561268c565b6040519080825280601f01601f191660200182016040528015611e2f576020820181803683370190505b509050600360fc1b81600081518110611e4a57611e4a612a20565b60200101906001600160f81b031916908160001a905350600f60fb1b81600181518110611e7957611e79612a20565b60200101906001600160f81b031916908160001a9053506000611e9d846002612cba565b611ea8906001612ba3565b90505b6001811115611f20576f181899199a1a9b1b9c1cb0b131b232b360811b85600f1660108110611edc57611edc612a20565b1a60f81b828281518110611ef257611ef2612a20565b60200101906001600160f81b031916908160001a90535060049490941c93611f1981612cd9565b9050611eab565b508315611f6f5760405162461bcd60e51b815260206004820181905260248201527f537472696e67733a20686578206c656e67746820696e73756666696369656e746044820152606401610815565b9392505050565b611f808383612296565b611f8d6000848484611fa9565b6109465760405162461bcd60e51b815260040161081590612c2a565b60006001600160a01b0384163b156120ab57604051630a85bd0160e11b81526001600160a01b0385169063150b7a0290611fed903390899088908890600401612cf0565b602060405180830381600087803b15801561200757600080fd5b505af1925050508015612037575060408051601f3d908101601f1916820190925261203491810190612d2d565b60015b612091573d808015612065576040519150601f19603f3d011682016040523d82523d6000602084013e61206a565b606091505b5080516120895760405162461bcd60e51b815260040161081590612c2a565b805181602001fd5b6001600160e01b031916630a85bd0160e11b14905061175b565b506001949350505050565b60006001600160e01b031982166380ac58cd60e01b14806120e757506001600160e01b03198216635b5e139f60e01b145b8061071557506301ffc9a760e01b6001600160e01b0319831614610715565b6000600161211384610f46565b61211d9190612b8c565b600083815260076020526040902054909150808214612170576001600160a01b03841660009081526006602090815260408083208584528252808320548484528184208190558352600790915290208190555b5060009182526007602090815260408084208490556001600160a01b039094168352600681528383209183525290812055565b6008546000906121b590600190612b8c565b600083815260096020526040812054600880549394509092849081106121dd576121dd612a20565b9060005260206000200154905080600883815481106121fe576121fe612a20565b600091825260208083209091019290925582815260099091526040808220849055858252812055600880548061223657612236612d4a565b6001900381819060005260206000200160009055905550505050565b600061225d83610f46565b6001600160a01b039093166000908152600660209081526040808320868452825280832085905593825260079052919091209190915550565b6001600160a01b0382166122ec5760405162461bcd60e51b815260206004820181905260248201527f4552433732313a206d696e7420746f20746865207a65726f20616464726573736044820152606401610815565b6122f58161160e565b156123425760405162461bcd60e51b815260206004820152601c60248201527f4552433732313a20746f6b656e20616c7265616479206d696e746564000000006044820152606401610815565b61234e60008383611d1c565b6001600160a01b0382166000908152600360205260408120805460019290612377908490612ba3565b909155505060008181526002602052604080822080546001600160a01b0319166001600160a01b0386169081179091559051839290600080516020612d61833981519152908290a45050565b8280546123cf90612994565b90600052602060002090601f0160209004810192826123f15760008555612437565b82601f1061240a57805160ff1916838001178555612437565b82800160010185558215612437579182015b8281111561243757825182559160200191906001019061241c565b50612443929150612465565b5090565b60405180604001604052806002906020820280368337509192915050565b5b808211156124435760008155600101612466565b6001600160e01b03198116811461104b57600080fd5b6000602082840312156124a257600080fd5b8135611f6f8161247a565b60005b838110156124c85781810151838201526020016124b0565b8381111561132e5750506000910152565b600081518084526124f18160208601602086016124ad565b601f01601f19169290920160200192915050565b602081526000611f6f60208301846124d9565b60006020828403121561252a57600080fd5b5035919050565b80356001600160a01b038116811461254857600080fd5b919050565b6000806040838503121561256057600080fd5b61256983612531565b946020939093013593505050565b60008060006060848603121561258c57600080fd5b61259584612531565b92506125a360208501612531565b9150604084013590509250925092565b600080604083850312156125c657600080fd5b823591506125d660208401612531565b90509250929050565b6000806000606084860312156125f457600080fd5b505081359360208301359350604090920135919050565b6000806040838503121561261e57600080fd5b50508035926020909101359150565b60006020828403121561263f57600080fd5b611f6f82612531565b6020808252825182820181905260009190848201906040850190845b8181101561268057835183529284019291840191600101612664565b50909695505050505050565b634e487b7160e01b600052604160045260246000fd5b60006001600160401b03808411156126bc576126bc61268c565b604051601f8501601f19908116603f011681019082821181831017156126e4576126e461268c565b816040528093508581528686860111156126fd57600080fd5b858560208301376000602087830101525050509392505050565b600082601f83011261272857600080fd5b611f6f838335602085016126a2565b60008060006060848603121561274c57600080fd5b8335925060208401356001600160401b038082111561276a57600080fd5b61277687838801612717565b9350604086013591508082111561278c57600080fd5b5061279986828701612717565b9150509250925092565b60408101818360005b60028110156127cb5781518352602092830192909101906001016127ac565b50505092915050565b6000602082840312156127e657600080fd5b81356001600160401b038111156127fc57600080fd5b61175b84828501612717565b803560ff8116811461254857600080fd5b6000806000806080858703121561282f57600080fd5b61283885612531565b935061284660208601612808565b925061285460408601612808565b9396929550929360600135925050565b801515811461104b57600080fd5b6000806040838503121561288557600080fd5b61288e83612531565b9150602083013561289e81612864565b809150509250929050565b600080600080608085870312156128bf57600080fd5b6128c885612531565b93506128d660208601612531565b92506040850135915060608501356001600160401b038111156128f857600080fd5b8501601f8101871361290957600080fd5b612918878235602084016126a2565b91505092959194509250565b6000806040838503121561293757600080fd5b61294083612531565b91506125d660208401612531565b6000806040838503121561296157600080fd5b8235915060208301356001600160401b0381111561297e57600080fd5b61298a85828601612717565b9150509250929050565b600181811c908216806129a857607f821691505b602082108114156129c957634e487b7160e01b600052602260045260246000fd5b50919050565b60208082526031908201527f4552433732313a207472616e736665722063616c6c6572206973206e6f74206f6040820152701ddb995c881b9bdc88185c1c1c9bdd9959607a1b606082015260800190565b634e487b7160e01b600052603260045260246000fd5b634e487b7160e01b600052601160045260246000fd5b6000600019821415612a6057612a60612a36565b5060010190565b60008151612a798185602086016124ad565b9290920192915050565b60008251612a958184602087016124ad565b9190910192915050565b600060208284031215612ab157600080fd5b5051919050565b600060208284031215612aca57600080fd5b8151611f6f81612864565b600080845481600182811c915080831680612af157607f831692505b6020808410821415612b1157634e487b7160e01b86526022600452602486fd5b818015612b255760018114612b3657612b63565b60ff19861689528489019650612b63565b60008b81526020902060005b86811015612b5b5781548b820152908501908301612b42565b505084890196505b505050505050612b83612b7d82602f60f81b815260010190565b85612a67565b95945050505050565b600082821015612b9e57612b9e612a36565b500390565b60008219821115612bb657612bb6612a36565b500190565b76020b1b1b2b9b9a1b7b73a3937b61d1030b1b1b7bab73a1604d1b815260008351612bed8160178501602088016124ad565b7001034b99036b4b9b9b4b733903937b6329607d1b6017918401918201528351612c1e8160288401602088016124ad565b01602801949350505050565b60208082526032908201527f4552433732313a207472616e7366657220746f206e6f6e20455243373231526560408201527131b2b4bb32b91034b6b83632b6b2b73a32b960711b606082015260800190565b634e487b7160e01b600052601260045260246000fd5b600082612ca157612ca1612c7c565b500490565b600082612cb557612cb5612c7c565b500690565b6000816000190483118215151615612cd457612cd4612a36565b500290565b600081612ce857612ce8612a36565b506000190190565b6001600160a01b0385811682528416602082015260408101839052608060608201819052600090612d23908301846124d9565b9695505050505050565b600060208284031215612d3f57600080fd5b8151611f6f8161247a565b634e487b7160e01b600052603160045260246000fdfeddf252ad1be2c89b69c2b068fc378daa952ba7f163c4a11628f55a4df523b3efa2646970667358221220776b307e11b5372123d6f1c0b50a7449af859998af91bcfc10d8271a9686a0ad64736f6c6343000809003368747470733a2f2f6d657461646174612e6d65746173736f6365722e636f6d2f73636f757473",
  "devdoc": {
    "kind": "dev",
    "methods": {
      "approve(address,uint256)": {
        "details": "See {IERC721-approve}."
      },
      "balanceOf(address)": {
        "details": "See {IERC721-balanceOf}."
      },
      "getApproved(uint256)": {
        "details": "See {IERC721-getApproved}."
      },
      "getRoleAdmin(bytes32)": {
        "details": "Returns the admin role that controls `role`. See {grantRole} and {revokeRole}. To change a role's admin, use {_setRoleAdmin}."
      },
      "grantRole(bytes32,address)": {
        "details": "Grants `role` to `account`. If `account` had not been already granted `role`, emits a {RoleGranted} event. Requirements: - the caller must have ``role``'s admin role."
      },
      "hasRole(bytes32,address)": {
        "details": "Returns `true` if `account` has been granted `role`."
      },
      "isApprovedForAll(address,address)": {
        "details": "See {IERC721-isApprovedForAll}."
      },
      "name()": {
        "details": "See {IERC721Metadata-name}."
      },
      "ownerOf(uint256)": {
        "details": "See {IERC721-ownerOf}."
      },
      "renounceRole(bytes32,address)": {
        "details": "Revokes `role` from the calling account. Roles are often managed via {grantRole} and {revokeRole}: this function's purpose is to provide a mechanism for accounts to lose their privileges if they are compromised (such as when a trusted device is misplaced). If the calling account had been revoked `role`, emits a {RoleRevoked} event. Requirements: - the caller must be `account`."
      },
      "revokeRole(bytes32,address)": {
        "details": "Revokes `role` from `account`. If `account` had been granted `role`, emits a {RoleRevoked} event. Requirements: - the caller must have ``role``'s admin role."
      },
      "safeTransferFrom(address,address,uint256)": {
        "details": "See {IERC721-safeTransferFrom}."
      },
      "safeTransferFrom(address,address,uint256,bytes)": {
        "details": "See {IERC721-safeTransferFrom}."
      },
      "setApprovalForAll(address,bool)": {
        "details": "See {IERC721-setApprovalForAll}."
      },
      "symbol()": {
        "details": "See {IERC721Metadata-symbol}."
      },
      "tokenByIndex(uint256)": {
        "details": "See {IERC721Enumerable-tokenByIndex}."
      },
      "tokenOfOwnerByIndex(address,uint256)": {
        "details": "See {IERC721Enumerable-tokenOfOwnerByIndex}."
      },
      "totalSupply()": {
        "details": "See {IERC721Enumerable-totalSupply}."
      },
      "transferFrom(address,address,uint256)": {
        "details": "See {IERC721-transferFrom}."
      },
      "withdrawERC20(address,uint256)": {
        "details": "Withdraw function to avoid locking tokens in the contract"
      },
      "withdrawNFT(address,uint256)": {
        "details": "Emergency method to withdraw NFT in case someone sends.."
      }
    },
    "stateVariables": {
      "tokenGenerator": {
        "details": "Maps the YouthScout id to the original redeemer and its local token"
      }
    },
    "version": 1
  },
  "userdoc": {
    "kind": "user",
    "methods": {
      "hasEntropy(uint256,uint256)": {
        "notice": "Default values will be false"
      }
    },
    "version": 1
  },
  "storageLayout": {
    "storage": [
      {
        "astId": 1658,
        "contract": "contracts/Scouts.sol:YouthScouts",
        "label": "_name",
        "offset": 0,
        "slot": "0",
        "type": "t_string_storage"
      },
      {
        "astId": 1660,
        "contract": "contracts/Scouts.sol:YouthScouts",
        "label": "_symbol",
        "offset": 0,
        "slot": "1",
        "type": "t_string_storage"
      },
      {
        "astId": 1664,
        "contract": "contracts/Scouts.sol:YouthScouts",
        "label": "_owners",
        "offset": 0,
        "slot": "2",
        "type": "t_mapping(t_uint256,t_address)"
      },
      {
        "astId": 1668,
        "contract": "contracts/Scouts.sol:YouthScouts",
        "label": "_balances",
        "offset": 0,
        "slot": "3",
        "type": "t_mapping(t_address,t_uint256)"
      },
      {
        "astId": 1672,
        "contract": "contracts/Scouts.sol:YouthScouts",
        "label": "_tokenApprovals",
        "offset": 0,
        "slot": "4",
        "type": "t_mapping(t_uint256,t_address)"
      },
      {
        "astId": 1678,
        "contract": "contracts/Scouts.sol:YouthScouts",
        "label": "_operatorApprovals",
        "offset": 0,
        "slot": "5",
        "type": "t_mapping(t_address,t_mapping(t_address,t_bool))"
      },
      {
        "astId": 2612,
        "contract": "contracts/Scouts.sol:YouthScouts",
        "label": "_ownedTokens",
        "offset": 0,
        "slot": "6",
        "type": "t_mapping(t_address,t_mapping(t_uint256,t_uint256))"
      },
      {
        "astId": 2616,
        "contract": "contracts/Scouts.sol:YouthScouts",
        "label": "_ownedTokensIndex",
        "offset": 0,
        "slot": "7",
        "type": "t_mapping(t_uint256,t_uint256)"
      },
      {
        "astId": 2619,
        "contract": "contracts/Scouts.sol:YouthScouts",
        "label": "_allTokens",
        "offset": 0,
        "slot": "8",
        "type": "t_array(t_uint256)dyn_storage"
      },
      {
        "astId": 2623,
        "contract": "contracts/Scouts.sol:YouthScouts",
        "label": "_allTokensIndex",
        "offset": 0,
        "slot": "9",
        "type": "t_mapping(t_uint256,t_uint256)"
      },
      {
        "astId": 290,
        "contract": "contracts/Scouts.sol:YouthScouts",
        "label": "_roles",
        "offset": 0,
        "slot": "10",
        "type": "t_mapping(t_bytes32,t_struct(RoleData)285_storage)"
      },
      {
        "astId": 3966,
        "contract": "contracts/Scouts.sol:YouthScouts",
        "label": "entropyStorage",
        "offset": 0,
        "slot": "11",
        "type": "t_mapping(t_uint256,t_mapping(t_uint256,t_struct(Entropy)3948_storage))"
      },
      {
        "astId": 855,
        "contract": "contracts/Scouts.sol:YouthScouts",
        "label": "_status",
        "offset": 0,
        "slot": "12",
        "type": "t_uint256"
      },
      {
        "astId": 4132,
        "contract": "contracts/Scouts.sol:YouthScouts",
        "label": "tokenDNA",
        "offset": 0,
        "slot": "13",
        "type": "t_mapping(t_uint256,t_string_storage)"
      },
      {
        "astId": 4138,
        "contract": "contracts/Scouts.sol:YouthScouts",
        "label": "tokenAttributes",
        "offset": 0,
        "slot": "14",
        "type": "t_mapping(t_uint256,t_mapping(t_string_memory_ptr,t_string_storage))"
      },
      {
        "astId": 4145,
        "contract": "contracts/Scouts.sol:YouthScouts",
        "label": "tokenGenerator",
        "offset": 0,
        "slot": "15",
        "type": "t_mapping(t_uint256,t_array(t_uint256)2_storage)"
      },
      {
        "astId": 4148,
        "contract": "contracts/Scouts.sol:YouthScouts",
        "label": "entropyManager",
        "offset": 0,
        "slot": "16",
        "type": "t_contract(IEntropyManager)4073"
      },
      {
        "astId": 4151,
        "contract": "contracts/Scouts.sol:YouthScouts",
        "label": "idGenerator",
        "offset": 0,
        "slot": "17",
        "type": "t_contract(IScoutsIdGenerator)4087"
      },
      {
        "astId": 4154,
        "contract": "contracts/Scouts.sol:YouthScouts",
        "label": "metadata_uri",
        "offset": 0,
        "slot": "18",
        "type": "t_string_storage"
      }
    ],
    "types": {
      "t_address": {
        "encoding": "inplace",
        "label": "address",
        "numberOfBytes": "20"
      },
      "t_array(t_uint256)2_storage": {
        "base": "t_uint256",
        "encoding": "inplace",
        "label": "uint256[2]",
        "numberOfBytes": "64"
      },
      "t_array(t_uint256)dyn_storage": {
        "base": "t_uint256",
        "encoding": "dynamic_array",
        "label": "uint256[]",
        "numberOfBytes": "32"
      },
      "t_bool": {
        "encoding": "inplace",
        "label": "bool",
        "numberOfBytes": "1"
      },
      "t_bytes32": {
        "encoding": "inplace",
        "label": "bytes32",
        "numberOfBytes": "32"
      },
      "t_contract(IEntropyManager)4073": {
        "encoding": "inplace",
        "label": "contract IEntropyManager",
        "numberOfBytes": "20"
      },
      "t_contract(IScoutsIdGenerator)4087": {
        "encoding": "inplace",
        "label": "contract IScoutsIdGenerator",
        "numberOfBytes": "20"
      },
      "t_mapping(t_address,t_bool)": {
        "encoding": "mapping",
        "key": "t_address",
        "label": "mapping(address => bool)",
        "numberOfBytes": "32",
        "value": "t_bool"
      },
      "t_mapping(t_address,t_mapping(t_address,t_bool))": {
        "encoding": "mapping",
        "key": "t_address",
        "label": "mapping(address => mapping(address => bool))",
        "numberOfBytes": "32",
        "value": "t_mapping(t_address,t_bool)"
      },
      "t_mapping(t_address,t_mapping(t_uint256,t_uint256))": {
        "encoding": "mapping",
        "key": "t_address",
        "label": "mapping(address => mapping(uint256 => uint256))",
        "numberOfBytes": "32",
        "value": "t_mapping(t_uint256,t_uint256)"
      },
      "t_mapping(t_address,t_uint256)": {
        "encoding": "mapping",
        "key": "t_address",
        "label": "mapping(address => uint256)",
        "numberOfBytes": "32",
        "value": "t_uint256"
      },
      "t_mapping(t_bytes32,t_struct(RoleData)285_storage)": {
        "encoding": "mapping",
        "key": "t_bytes32",
        "label": "mapping(bytes32 => struct AccessControl.RoleData)",
        "numberOfBytes": "32",
        "value": "t_struct(RoleData)285_storage"
      },
      "t_mapping(t_string_memory_ptr,t_string_storage)": {
        "encoding": "mapping",
        "key": "t_string_memory_ptr",
        "label": "mapping(string => string)",
        "numberOfBytes": "32",
        "value": "t_string_storage"
      },
      "t_mapping(t_uint256,t_address)": {
        "encoding": "mapping",
        "key": "t_uint256",
        "label": "mapping(uint256 => address)",
        "numberOfBytes": "32",
        "value": "t_address"
      },
      "t_mapping(t_uint256,t_array(t_uint256)2_storage)": {
        "encoding": "mapping",
        "key": "t_uint256",
        "label": "mapping(uint256 => uint256[2])",
        "numberOfBytes": "32",
        "value": "t_array(t_uint256)2_storage"
      },
      "t_mapping(t_uint256,t_mapping(t_string_memory_ptr,t_string_storage))": {
        "encoding": "mapping",
        "key": "t_uint256",
        "label": "mapping(uint256 => mapping(string => string))",
        "numberOfBytes": "32",
        "value": "t_mapping(t_string_memory_ptr,t_string_storage)"
      },
      "t_mapping(t_uint256,t_mapping(t_uint256,t_struct(Entropy)3948_storage))": {
        "encoding": "mapping",
        "key": "t_uint256",
        "label": "mapping(uint256 => mapping(uint256 => struct EntropyStorage.Entropy))",
        "numberOfBytes": "32",
        "value": "t_mapping(t_uint256,t_struct(Entropy)3948_storage)"
      },
      "t_mapping(t_uint256,t_string_storage)": {
        "encoding": "mapping",
        "key": "t_uint256",
        "label": "mapping(uint256 => string)",
        "numberOfBytes": "32",
        "value": "t_string_storage"
      },
      "t_mapping(t_uint256,t_struct(Entropy)3948_storage)": {
        "encoding": "mapping",
        "key": "t_uint256",
        "label": "mapping(uint256 => struct EntropyStorage.Entropy)",
        "numberOfBytes": "32",
        "value": "t_struct(Entropy)3948_storage"
      },
      "t_mapping(t_uint256,t_uint256)": {
        "encoding": "mapping",
        "key": "t_uint256",
        "label": "mapping(uint256 => uint256)",
        "numberOfBytes": "32",
        "value": "t_uint256"
      },
      "t_string_memory_ptr": {
        "encoding": "bytes",
        "label": "string",
        "numberOfBytes": "32"
      },
      "t_string_storage": {
        "encoding": "bytes",
        "label": "string",
        "numberOfBytes": "32"
      },
      "t_struct(Entropy)3948_storage": {
        "encoding": "inplace",
        "label": "struct EntropyStorage.Entropy",
        "members": [
          {
            "astId": 3945,
            "contract": "contracts/Scouts.sol:YouthScouts",
            "label": "finished",
            "offset": 0,
            "slot": "0",
            "type": "t_bool"
          },
          {
            "astId": 3947,
            "contract": "contracts/Scouts.sol:YouthScouts",
            "label": "value",
            "offset": 0,
            "slot": "1",
            "type": "t_uint256"
          }
        ],
        "numberOfBytes": "64"
      },
      "t_struct(RoleData)285_storage": {
        "encoding": "inplace",
        "label": "struct AccessControl.RoleData",
        "members": [
          {
            "astId": 282,
            "contract": "contracts/Scouts.sol:YouthScouts",
            "label": "members",
            "offset": 0,
            "slot": "0",
            "type": "t_mapping(t_address,t_bool)"
          },
          {
            "astId": 284,
            "contract": "contracts/Scouts.sol:YouthScouts",
            "label": "adminRole",
            "offset": 0,
            "slot": "1",
            "type": "t_bytes32"
          }
        ],
        "numberOfBytes": "64"
      },
      "t_uint256": {
        "encoding": "inplace",
        "label": "uint256",
        "numberOfBytes": "32"
      }
    }
  }
}